{
  "contractName": "CFP",
  "abi": [
    {
      "inputs": [
        {
          "internalType": "bytes32",
          "name": "_cId",
          "type": "bytes32"
        },
        {
          "internalType": "uint256",
          "name": "_cTime",
          "type": "uint256"
        }
      ],
      "stateMutability": "nonpayable",
      "type": "constructor"
    },
    {
      "anonymous": false,
      "inputs": [
        {
          "indexed": false,
          "internalType": "bytes32",
          "name": "proposal",
          "type": "bytes32"
        },
        {
          "indexed": false,
          "internalType": "address",
          "name": "sender",
          "type": "address"
        },
        {
          "indexed": false,
          "internalType": "uint256",
          "name": "blockNumber",
          "type": "uint256"
        }
      ],
      "name": "ProposalRegistered",
      "type": "event"
    },
    {
      "inputs": [
        {
          "internalType": "bytes32",
          "name": "",
          "type": "bytes32"
        }
      ],
      "name": "_proposalData",
      "outputs": [
        {
          "internalType": "address",
          "name": "sender",
          "type": "address"
        },
        {
          "internalType": "uint256",
          "name": "blockNumber",
          "type": "uint256"
        },
        {
          "internalType": "uint256",
          "name": "timestamp",
          "type": "uint256"
        }
      ],
      "stateMutability": "view",
      "type": "function"
    },
    {
      "inputs": [
        {
          "internalType": "uint256",
          "name": "",
          "type": "uint256"
        }
      ],
      "name": "_proposals",
      "outputs": [
        {
          "internalType": "bytes32",
          "name": "",
          "type": "bytes32"
        }
      ],
      "stateMutability": "view",
      "type": "function"
    },
    {
      "inputs": [
        {
          "internalType": "bytes32",
          "name": "proposal",
          "type": "bytes32"
        }
      ],
      "name": "proposalData",
      "outputs": [
        {
          "components": [
            {
              "internalType": "address",
              "name": "sender",
              "type": "address"
            },
            {
              "internalType": "uint256",
              "name": "blockNumber",
              "type": "uint256"
            },
            {
              "internalType": "uint256",
              "name": "timestamp",
              "type": "uint256"
            }
          ],
          "internalType": "struct CFP.ProposalData",
          "name": "",
          "type": "tuple"
        }
      ],
      "stateMutability": "view",
      "type": "function"
    },
    {
      "inputs": [
        {
          "internalType": "uint256",
          "name": "index",
          "type": "uint256"
        }
      ],
      "name": "proposals",
      "outputs": [
        {
          "internalType": "bytes32",
          "name": "",
          "type": "bytes32"
        }
      ],
      "stateMutability": "view",
      "type": "function"
    },
    {
      "inputs": [],
      "name": "closingTime",
      "outputs": [
        {
          "internalType": "uint256",
          "name": "",
          "type": "uint256"
        }
      ],
      "stateMutability": "view",
      "type": "function"
    },
    {
      "inputs": [],
      "name": "callId",
      "outputs": [
        {
          "internalType": "bytes32",
          "name": "",
          "type": "bytes32"
        }
      ],
      "stateMutability": "view",
      "type": "function"
    },
    {
      "inputs": [],
      "name": "creator",
      "outputs": [
        {
          "internalType": "address",
          "name": "",
          "type": "address"
        }
      ],
      "stateMutability": "view",
      "type": "function"
    },
    {
      "inputs": [],
      "name": "proposalCount",
      "outputs": [
        {
          "internalType": "uint256",
          "name": "",
          "type": "uint256"
        }
      ],
      "stateMutability": "view",
      "type": "function"
    },
    {
      "inputs": [
        {
          "internalType": "bytes32",
          "name": "proposal",
          "type": "bytes32"
        }
      ],
      "name": "registerProposal",
      "outputs": [],
      "stateMutability": "nonpayable",
      "type": "function"
    },
    {
      "inputs": [
        {
          "internalType": "bytes32",
          "name": "proposal",
          "type": "bytes32"
        },
        {
          "internalType": "address",
          "name": "sender",
          "type": "address"
        }
      ],
      "name": "registerProposalFor",
      "outputs": [],
      "stateMutability": "nonpayable",
      "type": "function"
    },
    {
      "inputs": [
        {
          "internalType": "bytes32",
          "name": "proposal",
          "type": "bytes32"
        }
      ],
      "name": "proposalTimestamp",
      "outputs": [
        {
          "internalType": "uint256",
          "name": "",
          "type": "uint256"
        }
      ],
      "stateMutability": "view",
      "type": "function"
    }
  ],
  "bytecode": "0x60806040523480156200001157600080fd5b5060405162000ecc38038062000ecc83398181016040528101906200003791906200014e565b8042106200007c576040517f08c379a000000000000000000000000000000000000000000000000000000000815260040162000073906200021c565b60405180910390fd5b816000819055508060018190555033600260006101000a81548173ffffffffffffffffffffffffffffffffffffffff021916908373ffffffffffffffffffffffffffffffffffffffff16021790555050506200023e565b600080fd5b6000819050919050565b620000ed81620000d8565b8114620000f957600080fd5b50565b6000815190506200010d81620000e2565b92915050565b6000819050919050565b620001288162000113565b81146200013457600080fd5b50565b60008151905062000148816200011d565b92915050565b60008060408385031215620001685762000167620000d3565b5b60006200017885828601620000fc565b92505060206200018b8582860162000137565b9150509250929050565b600082825260208201905092915050565b7f456c20636965727265206465206c6120636f6e766f6361746f726961206e6f2060008201527f707565646520657374617220656e20656c2070617361646f0000000000000000602082015250565b60006200020460388362000195565b91506200021182620001a6565b604082019050919050565b600060208201905081810360008301526200023781620001f5565b9050919050565b610c7e806200024e6000396000f3fe608060405234801561001057600080fd5b50600436106100a95760003560e01c80634b6753bc116100715780634b6753bc1461018e5780635dcfbcc2146101ac5780636424e719146101c85780639c9cbf9c146101f8578063d955cb0014610214578063da35c66414610232576100a9565b8063013cf08b146100ae57806302d05d3f146100de5780630a494840146100fc5780630f79785c1461012c5780633696b7871461015e575b600080fd5b6100c860048036038101906100c391906107e3565b610250565b6040516100d59190610829565b60405180910390f35b6100e6610278565b6040516100f39190610885565b60405180910390f35b610116600480360381019061011191906107e3565b6102a2565b6040516101239190610829565b60405180910390f35b610146600480360381019061014191906108cc565b6102c6565b60405161015593929190610908565b60405180910390f35b610178600480360381019061017391906108cc565b610310565b604051610185919061093f565b60405180910390f35b610196610330565b6040516101a3919061093f565b60405180910390f35b6101c660048036038101906101c191906108cc565b61033a565b005b6101e260048036038101906101dd91906108cc565b6104d9565b6040516101ef91906109ba565b60405180910390f35b610212600480360381019061020d9190610a01565b610570565b005b61021c61075b565b6040516102299190610829565b60405180910390f35b61023a610764565b604051610247919061093f565b60405180910390f35b60006004828154811061026657610265610a41565b5b90600052602060002001549050919050565b6000600260009054906101000a900473ffffffffffffffffffffffffffffffffffffffff16905090565b600481815481106102b257600080fd5b906000526020600020016000915090505481565b60036020528060005260406000206000915090508060000160009054906101000a900473ffffffffffffffffffffffffffffffffffffffff16908060010154908060020154905083565b600060036000838152602001908152602001600020600201549050919050565b6000600154905090565b600061034582610310565b14610385576040517f08c379a000000000000000000000000000000000000000000000000000000000815260040161037c90610af3565b60405180910390fd5b6001544211156103ca576040517f08c379a00000000000000000000000000000000000000000000000000000000081526004016103c190610b5f565b60405180910390fd5b600060405180606001604052803373ffffffffffffffffffffffffffffffffffffffff168152602001438152602001428152509050806003600084815260200190815260200160002060008201518160000160006101000a81548173ffffffffffffffffffffffffffffffffffffffff021916908373ffffffffffffffffffffffffffffffffffffffff160217905550602082015181600101556040820151816002015590505060048290806001815401808255809150506001900390600052602060002001600090919091909150557f1a26f048630a7f2b9229c19a042fe677bbbad402ecb8f3fa77f9c4a3f98cae948233436040516104cd93929190610b7f565b60405180910390a15050565b6104e1610771565b600360008381526020019081526020016000206040518060600160405290816000820160009054906101000a900473ffffffffffffffffffffffffffffffffffffffff1673ffffffffffffffffffffffffffffffffffffffff1673ffffffffffffffffffffffffffffffffffffffff168152602001600182015481526020016002820154815250509050919050565b600260009054906101000a900473ffffffffffffffffffffffffffffffffffffffff1673ffffffffffffffffffffffffffffffffffffffff163373ffffffffffffffffffffffffffffffffffffffff1614610600576040517f08c379a00000000000000000000000000000000000000000000000000000000081526004016105f790610c28565b60405180910390fd5b600061060b83610310565b1461064b576040517f08c379a000000000000000000000000000000000000000000000000000000000815260040161064290610af3565b60405180910390fd5b600060405180606001604052808373ffffffffffffffffffffffffffffffffffffffff168152602001438152602001428152509050806003600085815260200190815260200160002060008201518160000160006101000a81548173ffffffffffffffffffffffffffffffffffffffff021916908373ffffffffffffffffffffffffffffffffffffffff160217905550602082015181600101556040820151816002015590505060048390806001815401808255809150506001900390600052602060002001600090919091909150557f1a26f048630a7f2b9229c19a042fe677bbbad402ecb8f3fa77f9c4a3f98cae9483834360405161074e93929190610b7f565b60405180910390a1505050565b60008054905090565b6000600480549050905090565b6040518060600160405280600073ffffffffffffffffffffffffffffffffffffffff16815260200160008152602001600081525090565b600080fd5b6000819050919050565b6107c0816107ad565b81146107cb57600080fd5b50565b6000813590506107dd816107b7565b92915050565b6000602082840312156107f9576107f86107a8565b5b6000610807848285016107ce565b91505092915050565b6000819050919050565b61082381610810565b82525050565b600060208201905061083e600083018461081a565b92915050565b600073ffffffffffffffffffffffffffffffffffffffff82169050919050565b600061086f82610844565b9050919050565b61087f81610864565b82525050565b600060208201905061089a6000830184610876565b92915050565b6108a981610810565b81146108b457600080fd5b50565b6000813590506108c6816108a0565b92915050565b6000602082840312156108e2576108e16107a8565b5b60006108f0848285016108b7565b91505092915050565b610902816107ad565b82525050565b600060608201905061091d6000830186610876565b61092a60208301856108f9565b61093760408301846108f9565b949350505050565b600060208201905061095460008301846108f9565b92915050565b61096381610864565b82525050565b610972816107ad565b82525050565b60608201600082015161098e600085018261095a565b5060208201516109a16020850182610969565b5060408201516109b46040850182610969565b50505050565b60006060820190506109cf6000830184610978565b92915050565b6109de81610864565b81146109e957600080fd5b50565b6000813590506109fb816109d5565b92915050565b60008060408385031215610a1857610a176107a8565b5b6000610a26858286016108b7565b9250506020610a37858286016109ec565b9150509250929050565b7f4e487b7100000000000000000000000000000000000000000000000000000000600052603260045260246000fd5b600082825260208201905092915050565b7f4c612070726f707565737461207961206861207369646f20726567697374726160008201527f6461000000000000000000000000000000000000000000000000000000000000602082015250565b6000610add602283610a70565b9150610ae882610a81565b604082019050919050565b60006020820190508181036000830152610b0c81610ad0565b9050919050565b7f436f6e766f6361746f7269612063657272616461000000000000000000000000600082015250565b6000610b49601483610a70565b9150610b5482610b13565b602082019050919050565b60006020820190508181036000830152610b7881610b3c565b9050919050565b6000606082019050610b94600083018661081a565b610ba16020830185610876565b610bae60408301846108f9565b949350505050565b7f536f6c6f20656c2063726561646f72207075656465206861636572206573746160008201527f206c6c616d616461000000000000000000000000000000000000000000000000602082015250565b6000610c12602883610a70565b9150610c1d82610bb6565b604082019050919050565b60006020820190508181036000830152610c4181610c05565b905091905056fea2646970667358221220aa2198af3558d37d39d247f134e387a6370f035d60a4fc2278b117f0d9e7b65f64736f6c63430008130033",
  "immutableReferences": {},
  "source": "//SPDX-License-Identifier: MIT\npragma solidity ^0.8.19;\n\ncontract CFP {\n    // Evento que se emite cuando alguien registra una propuesta\n\n    // Estructura que representa una propuesta\n    struct ProposalData {\n        address sender;\n        uint256 blockNumber;\n        uint256 timestamp;\n    }\n\n    event ProposalRegistered(\n        bytes32 proposal,\n        address sender,\n        uint256 blockNumber\n    );\n\n    bytes32 private _callId;\n    uint256 private _closingTime;\n    address private _creator;\n\n    mapping(bytes32 => ProposalData) public _proposalData; \n    bytes32[] public _proposals;\n\n    // Devuelve los datos asociados con una propuesta\n    function proposalData(bytes32 proposal) public view returns (ProposalData memory) {\n        return _proposalData[proposal];\n    }\n    // Devuelve la propuesta que est en la posicin `index` de la lista de propuestas registradas\n    function proposals(uint index) public view returns (bytes32) {\n        return _proposals[index];\n    }\n\n    // Timestamp del cierre de la recepcin de propuestas\n    function closingTime() public view returns (uint256) {\n        return _closingTime;\n    }\n\n    // Identificador de este llamado\n    function callId() public view returns (bytes32) {\n        return _callId;\n    }\n\n    // Creador de este llamado\n    function creator() public view returns (address) {\n        return _creator;\n    }\n\n    /** Construye un llamado con un identificador y un tiempo de cierre.\n     *  Si el `timestamp` del bloque actual es mayor o igual al tiempo de cierre especificado,\n     *  revierte con el mensaje \"El cierre de la convocatoria no puede estar en el pasado\".\n     */\n    constructor(bytes32 _cId, uint256 _cTime) {\n        if (block.timestamp >= _cTime) {\n            revert(\"El cierre de la convocatoria no puede estar en el pasado\");\n        }\n        _callId = _cId;\n        _closingTime = _cTime;\n        _creator = msg.sender;\n    }\n\n    // Devuelve la cantidad de propuestas presentadas\n    function proposalCount() public view returns (uint256) {\n        return _proposals.length;\n    }\n\n    /** Permite registrar una propuesta espec.\n     *  Registra al emisor del mensaje como emisor de la propuesta.\n     *  Si el timestamp del bloque actual es mayor que el del cierre del llamado,\n     *  revierte con el error \"Convocatoria cerrada\"\n     *  Si ya se ha registrado una propuesta igual, revierte con el mensaje\n     *  \"La propuesta ya ha sido registrada\"\n     *  Emite el evento `ProposalRegistered`\n     */\n    function registerProposal(bytes32 proposal) public {\n        require(proposalTimestamp(proposal) == 0, \"La propuesta ya ha sido registrada\");\n        if (block.timestamp > _closingTime) {\n            revert(\"Convocatoria cerrada\");\n        }\n        ProposalData memory pd = ProposalData(msg.sender, block.number, block.timestamp);\n        _proposalData[proposal] = pd;\n        _proposals.push(proposal);\n        emit ProposalRegistered(proposal, msg.sender, block.number);\n    }\n\n    /** Permite registrar una propuesta especificando un emisor.\n     *  Slo puede ser ejecutada por el creador del llamado. Si no es as, revierte\n     *  con el mensaje \"Solo el creador puede hacer esta llamada\"\n     *  Si el timestamp del bloque actual es mayor que el del cierre del llamado,\n     *  revierte con el error \"Convocatoria cerrada\"\n     *  Si ya se ha registrado una propuesta igual, revierte con el mensaje\n     *  \"La propuesta ya ha sido registrada\"\n     *  Emite el evento `ProposalRegistered`\n     */\n    function registerProposalFor(bytes32 proposal, address sender) public {\n        require(msg.sender == _creator, \"Solo el creador puede hacer esta llamada\");\n        require(proposalTimestamp(proposal) == 0, \"La propuesta ya ha sido registrada\");\n        ProposalData memory pd = ProposalData(sender, block.number, block.timestamp);\n        _proposalData[proposal] = pd;\n        _proposals.push(proposal);\n        emit ProposalRegistered(proposal, sender, block.number);\n    }\n\n    /** Devuelve el timestamp en el que se ha registrado una propuesta.\n     *  Si la propuesta no est registrada, devuelve cero.\n     */\n    function proposalTimestamp(\n        bytes32 proposal\n    ) public view returns (uint256) {\n        return _proposalData[proposal].timestamp;\n    }\n}\n",
  "sourcePath": "/Users/nahtao97/Blockchain/2024/TP/6/contracts/CFP.sol",
  "compiler": {
    "name": "solc",
    "version": "0.8.19+commit.7dd6d404.Emscripten.clang"
  },
  "schemaVersion": "3.4.16",
  "updatedAt": "2024-06-13T14:28:33.278Z",
  "devdoc": {
    "kind": "dev",
    "methods": {},
    "version": 1
  },
  "userdoc": {
    "kind": "user",
    "methods": {
      "constructor": {
        "notice": "Construye un llamado con un identificador y un tiempo de cierre.  Si el `timestamp` del bloque actual es mayor o igual al tiempo de cierre especificado,  revierte con el mensaje \"El cierre de la convocatoria no puede estar en el pasado\"."
      },
      "proposalTimestamp(bytes32)": {
        "notice": "Devuelve el timestamp en el que se ha registrado una propuesta.  Si la propuesta no est registrada, devuelve cero."
      },
      "registerProposal(bytes32)": {
        "notice": "Permite registrar una propuesta espec.  Registra al emisor del mensaje como emisor de la propuesta.  Si el timestamp del bloque actual es mayor que el del cierre del llamado,  revierte con el error \"Convocatoria cerrada\"  Si ya se ha registrado una propuesta igual, revierte con el mensaje  \"La propuesta ya ha sido registrada\"  Emite el evento `ProposalRegistered`"
      },
      "registerProposalFor(bytes32,address)": {
        "notice": "Permite registrar una propuesta especificando un emisor.  Slo puede ser ejecutada por el creador del llamado. Si no es as, revierte  con el mensaje \"Solo el creador puede hacer esta llamada\"  Si el timestamp del bloque actual es mayor que el del cierre del llamado,  revierte con el error \"Convocatoria cerrada\"  Si ya se ha registrado una propuesta igual, revierte con el mensaje  \"La propuesta ya ha sido registrada\"  Emite el evento `ProposalRegistered`"
      }
    },
    "version": 1
  }
}