{
  "contractName": "CFPFactory",
  "abi": [
    {
      "inputs": [
        {
          "internalType": "contract ReverseRegistrar",
          "name": "revReg",
          "type": "address"
        },
        {
          "internalType": "contract PublicResolver",
          "name": "pubRes",
          "type": "address"
        }
      ],
      "stateMutability": "nonpayable",
      "type": "constructor"
    },
    {
      "anonymous": false,
      "inputs": [
        {
          "indexed": false,
          "internalType": "address",
          "name": "creator",
          "type": "address"
        },
        {
          "indexed": false,
          "internalType": "bytes32",
          "name": "callId",
          "type": "bytes32"
        },
        {
          "indexed": false,
          "internalType": "contract CFP",
          "name": "cfp",
          "type": "address"
        }
      ],
      "name": "CFPCreated",
      "type": "event"
    },
    {
      "inputs": [],
      "name": "activeCreators",
      "outputs": [
        {
          "internalType": "uint256",
          "name": "",
          "type": "uint256"
        }
      ],
      "stateMutability": "view",
      "type": "function",
      "constant": true
    },
    {
      "inputs": [],
      "name": "owner",
      "outputs": [
        {
          "internalType": "address",
          "name": "",
          "type": "address"
        }
      ],
      "stateMutability": "view",
      "type": "function",
      "constant": true
    },
    {
      "inputs": [
        {
          "internalType": "bytes32",
          "name": "callId",
          "type": "bytes32"
        }
      ],
      "name": "calls",
      "outputs": [
        {
          "components": [
            {
              "internalType": "address",
              "name": "creator",
              "type": "address"
            },
            {
              "internalType": "contract CFP",
              "name": "cfp",
              "type": "address"
            },
            {
              "internalType": "bytes32",
              "name": "callId",
              "type": "bytes32"
            },
            {
              "internalType": "uint256",
              "name": "timestamp",
              "type": "uint256"
            }
          ],
          "internalType": "struct CFPFactory.CallForProposals",
          "name": "",
          "type": "tuple"
        }
      ],
      "stateMutability": "view",
      "type": "function",
      "constant": true
    },
    {
      "inputs": [
        {
          "internalType": "uint256",
          "name": "index",
          "type": "uint256"
        }
      ],
      "name": "creators",
      "outputs": [
        {
          "internalType": "address",
          "name": "",
          "type": "address"
        }
      ],
      "stateMutability": "view",
      "type": "function",
      "constant": true
    },
    {
      "inputs": [
        {
          "internalType": "bytes32",
          "name": "callId",
          "type": "bytes32"
        },
        {
          "internalType": "uint256",
          "name": "timestamp",
          "type": "uint256"
        }
      ],
      "name": "create",
      "outputs": [
        {
          "internalType": "contract CFP",
          "name": "",
          "type": "address"
        }
      ],
      "stateMutability": "nonpayable",
      "type": "function"
    },
    {
      "inputs": [
        {
          "internalType": "bytes32",
          "name": "callId",
          "type": "bytes32"
        },
        {
          "internalType": "uint256",
          "name": "timestamp",
          "type": "uint256"
        },
        {
          "internalType": "address",
          "name": "creator",
          "type": "address"
        }
      ],
      "name": "createFor",
      "outputs": [
        {
          "internalType": "contract CFP",
          "name": "",
          "type": "address"
        }
      ],
      "stateMutability": "nonpayable",
      "type": "function"
    },
    {
      "inputs": [],
      "name": "creatorsCount",
      "outputs": [
        {
          "internalType": "uint256",
          "name": "",
          "type": "uint256"
        }
      ],
      "stateMutability": "view",
      "type": "function",
      "constant": true
    },
    {
      "inputs": [],
      "name": "getCreatorsList",
      "outputs": [
        {
          "internalType": "address[]",
          "name": "",
          "type": "address[]"
        }
      ],
      "stateMutability": "view",
      "type": "function",
      "constant": true
    },
    {
      "inputs": [],
      "name": "getCallsList",
      "outputs": [
        {
          "components": [
            {
              "internalType": "address",
              "name": "creator",
              "type": "address"
            },
            {
              "internalType": "contract CFP",
              "name": "cfp",
              "type": "address"
            },
            {
              "internalType": "bytes32",
              "name": "callId",
              "type": "bytes32"
            },
            {
              "internalType": "uint256",
              "name": "timestamp",
              "type": "uint256"
            }
          ],
          "internalType": "struct CFPFactory.CallForProposals[]",
          "name": "",
          "type": "tuple[]"
        }
      ],
      "stateMutability": "view",
      "type": "function",
      "constant": true
    },
    {
      "inputs": [
        {
          "internalType": "address",
          "name": "creator",
          "type": "address"
        },
        {
          "internalType": "uint256",
          "name": "index",
          "type": "uint256"
        }
      ],
      "name": "createdBy",
      "outputs": [
        {
          "internalType": "bytes32",
          "name": "",
          "type": "bytes32"
        }
      ],
      "stateMutability": "view",
      "type": "function",
      "constant": true
    },
    {
      "inputs": [
        {
          "internalType": "address",
          "name": "creator",
          "type": "address"
        }
      ],
      "name": "callsByCreator",
      "outputs": [
        {
          "internalType": "bytes32[]",
          "name": "",
          "type": "bytes32[]"
        }
      ],
      "stateMutability": "view",
      "type": "function",
      "constant": true
    },
    {
      "inputs": [
        {
          "internalType": "address",
          "name": "creator",
          "type": "address"
        }
      ],
      "name": "createdByCount",
      "outputs": [
        {
          "internalType": "uint256",
          "name": "",
          "type": "uint256"
        }
      ],
      "stateMutability": "view",
      "type": "function",
      "constant": true
    },
    {
      "inputs": [
        {
          "internalType": "bytes32",
          "name": "callId",
          "type": "bytes32"
        },
        {
          "internalType": "bytes32",
          "name": "proposal",
          "type": "bytes32"
        }
      ],
      "name": "registerProposal",
      "outputs": [],
      "stateMutability": "nonpayable",
      "type": "function"
    },
    {
      "inputs": [],
      "name": "register",
      "outputs": [],
      "stateMutability": "nonpayable",
      "type": "function"
    },
    {
      "inputs": [
        {
          "internalType": "address",
          "name": "creator",
          "type": "address"
        }
      ],
      "name": "authorize",
      "outputs": [],
      "stateMutability": "nonpayable",
      "type": "function"
    },
    {
      "inputs": [
        {
          "internalType": "address",
          "name": "creator",
          "type": "address"
        }
      ],
      "name": "unauthorize",
      "outputs": [],
      "stateMutability": "nonpayable",
      "type": "function"
    },
    {
      "inputs": [],
      "name": "getAllPending",
      "outputs": [
        {
          "internalType": "address[]",
          "name": "",
          "type": "address[]"
        }
      ],
      "stateMutability": "view",
      "type": "function",
      "constant": true
    },
    {
      "inputs": [
        {
          "internalType": "uint256",
          "name": "index",
          "type": "uint256"
        }
      ],
      "name": "getPending",
      "outputs": [
        {
          "internalType": "address",
          "name": "",
          "type": "address"
        }
      ],
      "stateMutability": "view",
      "type": "function",
      "constant": true
    },
    {
      "inputs": [],
      "name": "pendingCount",
      "outputs": [
        {
          "internalType": "uint256",
          "name": "",
          "type": "uint256"
        }
      ],
      "stateMutability": "view",
      "type": "function",
      "constant": true
    },
    {
      "inputs": [
        {
          "internalType": "address",
          "name": "account",
          "type": "address"
        }
      ],
      "name": "isRegistered",
      "outputs": [
        {
          "internalType": "bool",
          "name": "",
          "type": "bool"
        }
      ],
      "stateMutability": "view",
      "type": "function",
      "constant": true
    },
    {
      "inputs": [
        {
          "internalType": "address",
          "name": "account",
          "type": "address"
        }
      ],
      "name": "isAuthorized",
      "outputs": [
        {
          "internalType": "bool",
          "name": "",
          "type": "bool"
        }
      ],
      "stateMutability": "view",
      "type": "function",
      "constant": true
    },
    {
      "inputs": [
        {
          "internalType": "bytes32",
          "name": "callId",
          "type": "bytes32"
        },
        {
          "internalType": "string",
          "name": "name",
          "type": "string"
        }
      ],
      "name": "setName",
      "outputs": [
        {
          "internalType": "bytes32",
          "name": "",
          "type": "bytes32"
        }
      ],
      "stateMutability": "nonpayable",
      "type": "function"
    },
    {
      "inputs": [
        {
          "internalType": "bytes32",
          "name": "callId",
          "type": "bytes32"
        },
        {
          "internalType": "bytes32",
          "name": "node",
          "type": "bytes32"
        }
      ],
      "name": "getName",
      "outputs": [
        {
          "internalType": "string",
          "name": "",
          "type": "string"
        }
      ],
      "stateMutability": "view",
      "type": "function",
      "constant": true
    }
  ],
  "bytecode": "0x60806040523480156200001157600080fd5b5060405162004f6638038062004f6683398181016040528101906200003791906200024f565b336000806101000a81548173ffffffffffffffffffffffffffffffffffffffff021916908373ffffffffffffffffffffffffffffffffffffffff16021790555081600760006101000a81548173ffffffffffffffffffffffffffffffffffffffff021916908373ffffffffffffffffffffffffffffffffffffffff16021790555080600860006101000a81548173ffffffffffffffffffffffffffffffffffffffff021916908373ffffffffffffffffffffffffffffffffffffffff16021790555060028060008060009054906101000a900473ffffffffffffffffffffffffffffffffffffffff1673ffffffffffffffffffffffffffffffffffffffff1673ffffffffffffffffffffffffffffffffffffffff16815260200190815260200160002060006101000a81548160ff021916908360038111156200017f576200017e62000296565b5b02179055505050620002c5565b600080fd5b600073ffffffffffffffffffffffffffffffffffffffff82169050919050565b6000620001be8262000191565b9050919050565b6000620001d282620001b1565b9050919050565b620001e481620001c5565b8114620001f057600080fd5b50565b6000815190506200020481620001d9565b92915050565b60006200021782620001b1565b9050919050565b62000229816200020a565b81146200023557600080fd5b50565b60008151905062000249816200021e565b92915050565b600080604083850312156200026957620002686200018c565b5b60006200027985828601620001f3565b92505060206200028c8582860162000238565b9150509250929050565b7f4e487b7100000000000000000000000000000000000000000000000000000000600052602160045260246000fd5b614c9180620002d56000396000f3fe60806040523480156200001157600080fd5b50600436106200016c5760003560e01c8063b6a5d7de11620000d5578063e46bda541162000087578063e46bda541462000461578063ea70b4af1462000483578063f0b37c0414620004a5578063f112ba7214620004c5578063f80364c714620004e7578063fe9fbb80146200051d576200016c565b8063b6a5d7de1462000347578063b711cf281462000367578063c3c5a547146200039d578063cd53d08e14620003d3578063cff102651462000409578063e1db17d2146200043f576200016c565b806380998490116200012f57806380998490146200021757806384f89a93146200024d5780638da5cb5b14620002835780639948878714620002a5578063a042c13214620002db578063ab4f48c41462000311576200016c565b80631aa3a0081462000171578063295c417b146200017d5780636a87d805146200019f57806372fe313514620001bf5780637737221314620001e1575b600080fd5b6200017b62000553565b005b620001876200079b565b6040516200019691906200258c565b60405180910390f35b620001bd6004803603810190620001b79190620025f8565b620007a1565b005b620001c96200093c565b604051620001d891906200282b565b60405180910390f35b620001ff6004803603810190620001f99190620029b1565b62000a5d565b6040516200020e919062002a28565b60405180910390f35b6200023560048036038101906200022f919062002a76565b62000b1e565b60405162000244919062002b65565b60405180910390f35b6200026b600480360381019062000265919062002bba565b62000bb7565b6040516200027a919062002bfd565b60405180910390f35b6200028d62000e29565b6040516200029c919062002bfd565b60405180910390f35b620002c36004803603810190620002bd9190620025f8565b62000e52565b604051620002d2919062002ca3565b60405180910390f35b620002f96004803603810190620002f3919062002cc7565b62000f16565b60405162000308919062002d1f565b60405180910390f35b6200032f600480360381019062000329919062002d3c565b62001484565b6040516200033e919062002d1f565b60405180910390f35b6200036560048036038101906200035f919062002a76565b62001a85565b005b6200038560048036038101906200037f919062002a76565b62001be6565b6040516200039491906200258c565b60405180910390f35b620003bb6004803603810190620003b5919062002a76565b62001c32565b604051620003ca919062002db5565b60405180910390f35b620003f16004803603810190620003eb919062002bba565b62001d37565b60405162000400919062002bfd565b60405180910390f35b62000427600480360381019062000421919062002dd2565b62001d82565b60405162000436919062002e61565b60405180910390f35b6200044962001e71565b60405162000458919062002f3b565b60405180910390f35b6200046b62001f01565b6040516200047a91906200258c565b60405180910390f35b6200048d62001f0b565b6040516200049c91906200258c565b60405180910390f35b620004c36004803603810190620004bd919062002a76565b620020a0565b005b620004cf6200219f565b604051620004de919062002f3b565b60405180910390f35b620005056004803603810190620004ff919062002f5f565b62002420565b60405162000514919062002a28565b60405180910390f35b6200053b600480360381019062000535919062002a76565b62002489565b6040516200054a919062002db5565b60405180910390f35b600160038111156200056a576200056962002fa6565b5b600260003373ffffffffffffffffffffffffffffffffffffffff1673ffffffffffffffffffffffffffffffffffffffff16815260200190815260200160002060009054906101000a900460ff166003811115620005cc57620005cb62002fa6565b5b036200060f576040517f08c379a0000000000000000000000000000000000000000000000000000000008152600401620006069062003025565b60405180910390fd5b6002600381111562000626576200062562002fa6565b5b600260003373ffffffffffffffffffffffffffffffffffffffff1673ffffffffffffffffffffffffffffffffffffffff16815260200190815260200160002060009054906101000a900460ff16600381111562000688576200068762002fa6565b5b03620006cb576040517f08c379a0000000000000000000000000000000000000000000000000000000008152600401620006c29062003025565b60405180910390fd5b6001600260003373ffffffffffffffffffffffffffffffffffffffff1673ffffffffffffffffffffffffffffffffffffffff16815260200190815260200160002060006101000a81548160ff0219169083600381111562000731576200073062002fa6565b5b02179055506003339080600181540180825580915050600190039060005260206000200160009091909190916101000a81548173ffffffffffffffffffffffffffffffffffffffff021916908373ffffffffffffffffffffffffffffffffffffffff160217905550565b60045481565b6000801b8103620007e9576040517f08c379a0000000000000000000000000000000000000000000000000000000008152600401620007e09062003097565b60405180910390fd5b600073ffffffffffffffffffffffffffffffffffffffff166001600084815260200190815260200160002060000160009054906101000a900473ffffffffffffffffffffffffffffffffffffffff1673ffffffffffffffffffffffffffffffffffffffff160362000891576040517f08c379a0000000000000000000000000000000000000000000000000000000008152600401620008889062003109565b60405180910390fd5b6001600083815260200190815260200160002060010160009054906101000a900473ffffffffffffffffffffffffffffffffffffffff1673ffffffffffffffffffffffffffffffffffffffff16639c9cbf9c82336040518363ffffffff1660e01b8152600401620009049291906200312b565b600060405180830381600087803b1580156200091f57600080fd5b505af115801562000934573d6000803e3d6000fd5b505050505050565b60606006805480602002602001604051908101604052809291908181526020016000905b8282101562000a5457838290600052602060002090600402016040518060800160405290816000820160009054906101000a900473ffffffffffffffffffffffffffffffffffffffff1673ffffffffffffffffffffffffffffffffffffffff1673ffffffffffffffffffffffffffffffffffffffff1681526020016001820160009054906101000a900473ffffffffffffffffffffffffffffffffffffffff1673ffffffffffffffffffffffffffffffffffffffff1673ffffffffffffffffffffffffffffffffffffffff168152602001600282015481526020016003820154815250508152602001906001019062000960565b50505050905090565b60006001600084815260200190815260200160002060010160009054906101000a900473ffffffffffffffffffffffffffffffffffffffff1673ffffffffffffffffffffffffffffffffffffffff1663c47f0027836040518263ffffffff1660e01b815260040162000ad0919062002ca3565b6020604051808303816000875af115801562000af0573d6000803e3d6000fd5b505050506040513d601f19601f8201168201806040525081019062000b1691906200316f565b905092915050565b6060600560008373ffffffffffffffffffffffffffffffffffffffff1673ffffffffffffffffffffffffffffffffffffffff16815260200190815260200160002080548060200260200160405190810160405280929190818152602001828054801562000bab57602002820191906000526020600020905b81548152602001906001019080831162000b96575b50505050509050919050565b60008060009054906101000a900473ffffffffffffffffffffffffffffffffffffffff1673ffffffffffffffffffffffffffffffffffffffff163373ffffffffffffffffffffffffffffffffffffffff161462000c4b576040517f08c379a000000000000000000000000000000000000000000000000000000000815260040162000c429062003217565b60405180910390fd5b62000c5562001f0b565b821062000c99576040517f08c379a000000000000000000000000000000000000000000000000000000000815260040162000c909062003289565b60405180910390fd5b6000805b60038054905081101562000de6576001600381111562000cc25762000cc162002fa6565b5b600260006003848154811062000cdd5762000cdc620032ab565b5b9060005260206000200160009054906101000a900473ffffffffffffffffffffffffffffffffffffffff1673ffffffffffffffffffffffffffffffffffffffff1673ffffffffffffffffffffffffffffffffffffffff16815260200190815260200160002060009054906101000a900460ff16600381111562000d655762000d6462002fa6565b5b0362000dd05783820362000dbf576003818154811062000d8a5762000d89620032ab565b5b9060005260206000200160009054906101000a900473ffffffffffffffffffffffffffffffffffffffff169250505062000e24565b818062000dcc9062003309565b9250505b808062000ddd9062003309565b91505062000c9d565b506040517f08c379a000000000000000000000000000000000000000000000000000000000815260040162000e1b90620033a6565b60405180910390fd5b919050565b60008060009054906101000a900473ffffffffffffffffffffffffffffffffffffffff16905090565b60606001600084815260200190815260200160002060010160009054906101000a900473ffffffffffffffffffffffffffffffffffffffff1673ffffffffffffffffffffffffffffffffffffffff166354b8d5e3836040518263ffffffff1660e01b815260040162000ec5919062002a28565b600060405180830381865afa15801562000ee3573d6000803e3d6000fd5b505050506040513d6000823e3d601f19601f8201168201806040525081019062000f0e919062003446565b905092915050565b60006002600381111562000f2f5762000f2e62002fa6565b5b600260003373ffffffffffffffffffffffffffffffffffffffff1673ffffffffffffffffffffffffffffffffffffffff16815260200190815260200160002060009054906101000a900460ff16600381111562000f915762000f9062002fa6565b5b1462000fd4576040517f08c379a000000000000000000000000000000000000000000000000000000000815260040162000fcb90620034e7565b60405180910390fd5b600073ffffffffffffffffffffffffffffffffffffffff166001600085815260200190815260200160002060000160009054906101000a900473ffffffffffffffffffffffffffffffffffffffff1673ffffffffffffffffffffffffffffffffffffffff16146200107c576040517f08c379a0000000000000000000000000000000000000000000000000000000008152600401620010739062003559565b60405180910390fd5b428211620010c1576040517f08c379a0000000000000000000000000000000000000000000000000000000008152600401620010b890620035f1565b60405180910390fd5b60008383600760009054906101000a900473ffffffffffffffffffffffffffffffffffffffff16600860009054906101000a900473ffffffffffffffffffffffffffffffffffffffff1660405162001119906200250c565b6200112894939291906200365d565b604051809103906000f08015801562001145573d6000803e3d6000fd5b50905060405180608001604052803373ffffffffffffffffffffffffffffffffffffffff1681526020018273ffffffffffffffffffffffffffffffffffffffff168152602001858152602001848152506001600086815260200190815260200160002060008201518160000160006101000a81548173ffffffffffffffffffffffffffffffffffffffff021916908373ffffffffffffffffffffffffffffffffffffffff16021790555060208201518160010160006101000a81548173ffffffffffffffffffffffffffffffffffffffff021916908373ffffffffffffffffffffffffffffffffffffffff16021790555060408201518160020155606082015181600301559050506000600560003373ffffffffffffffffffffffffffffffffffffffff1673ffffffffffffffffffffffffffffffffffffffff1681526020019081526020016000208054905003620012b557600160046000828254620012ad9190620036aa565b925050819055505b60066001600086815260200190815260200160002090806001815401808255809150506001900390600052602060002090600402016000909190919091506000820160009054906101000a900473ffffffffffffffffffffffffffffffffffffffff168160000160006101000a81548173ffffffffffffffffffffffffffffffffffffffff021916908373ffffffffffffffffffffffffffffffffffffffff1602179055506001820160009054906101000a900473ffffffffffffffffffffffffffffffffffffffff168160010160006101000a81548173ffffffffffffffffffffffffffffffffffffffff021916908373ffffffffffffffffffffffffffffffffffffffff16021790555060028201548160020155600382015481600301555050600560003373ffffffffffffffffffffffffffffffffffffffff1673ffffffffffffffffffffffffffffffffffffffff1681526020019081526020016000208490806001815401808255809150506001900390600052602060002001600090919091909150557fc8e97c2f1b3ebe76aeef2bb679bcca3e5e5515fedd7c25a76b0929ad2b7c3ace3385836040516200147293929190620036e5565b60405180910390a18091505092915050565b60008060009054906101000a900473ffffffffffffffffffffffffffffffffffffffff1673ffffffffffffffffffffffffffffffffffffffff163373ffffffffffffffffffffffffffffffffffffffff161462001518576040517f08c379a00000000000000000000000000000000000000000000000000000000081526004016200150f9062003217565b60405180910390fd5b600260038111156200152f576200152e62002fa6565b5b600260008473ffffffffffffffffffffffffffffffffffffffff1673ffffffffffffffffffffffffffffffffffffffff16815260200190815260200160002060009054906101000a900460ff16600381111562001591576200159062002fa6565b5b14620015d4576040517f08c379a0000000000000000000000000000000000000000000000000000000008152600401620015cb90620034e7565b60405180910390fd5b600073ffffffffffffffffffffffffffffffffffffffff166001600086815260200190815260200160002060000160009054906101000a900473ffffffffffffffffffffffffffffffffffffffff1673ffffffffffffffffffffffffffffffffffffffff16146200167c576040517f08c379a0000000000000000000000000000000000000000000000000000000008152600401620016739062003559565b60405180910390fd5b428311620016c1576040517f08c379a0000000000000000000000000000000000000000000000000000000008152600401620016b890620035f1565b60405180910390fd5b60008484600760009054906101000a900473ffffffffffffffffffffffffffffffffffffffff16600860009054906101000a900473ffffffffffffffffffffffffffffffffffffffff1660405162001719906200250c565b6200172894939291906200365d565b604051809103906000f08015801562001745573d6000803e3d6000fd5b50905060405180608001604052808473ffffffffffffffffffffffffffffffffffffffff1681526020018273ffffffffffffffffffffffffffffffffffffffff168152602001868152602001858152506001600087815260200190815260200160002060008201518160000160006101000a81548173ffffffffffffffffffffffffffffffffffffffff021916908373ffffffffffffffffffffffffffffffffffffffff16021790555060208201518160010160006101000a81548173ffffffffffffffffffffffffffffffffffffffff021916908373ffffffffffffffffffffffffffffffffffffffff160217905550604082015181600201556060820151816003015590505060066001600087815260200190815260200160002090806001815401808255809150506001900390600052602060002090600402016000909190919091506000820160009054906101000a900473ffffffffffffffffffffffffffffffffffffffff168160000160006101000a81548173ffffffffffffffffffffffffffffffffffffffff021916908373ffffffffffffffffffffffffffffffffffffffff1602179055506001820160009054906101000a900473ffffffffffffffffffffffffffffffffffffffff168160010160006101000a81548173ffffffffffffffffffffffffffffffffffffffff021916908373ffffffffffffffffffffffffffffffffffffffff160217905550600282015481600201556003820154816003015550506000600560008573ffffffffffffffffffffffffffffffffffffffff1673ffffffffffffffffffffffffffffffffffffffff1681526020019081526020016000208054905003620019d757600160046000828254620019cf9190620036aa565b925050819055505b600560008473ffffffffffffffffffffffffffffffffffffffff1673ffffffffffffffffffffffffffffffffffffffff1681526020019081526020016000208590806001815401808255809150506001900390600052602060002001600090919091909150557fc8e97c2f1b3ebe76aeef2bb679bcca3e5e5515fedd7c25a76b0929ad2b7c3ace83868360405162001a7293929190620036e5565b60405180910390a1809150509392505050565b60008054906101000a900473ffffffffffffffffffffffffffffffffffffffff1673ffffffffffffffffffffffffffffffffffffffff163373ffffffffffffffffffffffffffffffffffffffff161462001b16576040517f08c379a000000000000000000000000000000000000000000000000000000000815260040162001b0d9062003217565b60405180910390fd5b60028060008373ffffffffffffffffffffffffffffffffffffffff1673ffffffffffffffffffffffffffffffffffffffff16815260200190815260200160002060006101000a81548160ff0219169083600381111562001b7b5762001b7a62002fa6565b5b02179055506003819080600181540180825580915050600190039060005260206000200160009091909190916101000a81548173ffffffffffffffffffffffffffffffffffffffff021916908373ffffffffffffffffffffffffffffffffffffffff16021790555050565b6000600560008373ffffffffffffffffffffffffffffffffffffffff1673ffffffffffffffffffffffffffffffffffffffff168152602001908152602001600020805490509050919050565b60006001600381111562001c4b5762001c4a62002fa6565b5b600260008473ffffffffffffffffffffffffffffffffffffffff1673ffffffffffffffffffffffffffffffffffffffff16815260200190815260200160002060009054906101000a900460ff16600381111562001cad5762001cac62002fa6565b5b148062001d3057506002600381111562001ccc5762001ccb62002fa6565b5b600260008473ffffffffffffffffffffffffffffffffffffffff1673ffffffffffffffffffffffffffffffffffffffff16815260200190815260200160002060009054906101000a900460ff16600381111562001d2e5762001d2d62002fa6565b5b145b9050919050565b60006003828154811062001d505762001d4f620032ab565b5b9060005260206000200160009054906101000a900473ffffffffffffffffffffffffffffffffffffffff169050919050565b62001d8c6200251a565b600160008381526020019081526020016000206040518060800160405290816000820160009054906101000a900473ffffffffffffffffffffffffffffffffffffffff1673ffffffffffffffffffffffffffffffffffffffff1673ffffffffffffffffffffffffffffffffffffffff1681526020016001820160009054906101000a900473ffffffffffffffffffffffffffffffffffffffff1673ffffffffffffffffffffffffffffffffffffffff1673ffffffffffffffffffffffffffffffffffffffff168152602001600282015481526020016003820154815250509050919050565b6060600380548060200260200160405190810160405280929190818152602001828054801562001ef757602002820191906000526020600020905b8160009054906101000a900473ffffffffffffffffffffffffffffffffffffffff1673ffffffffffffffffffffffffffffffffffffffff168152602001906001019080831162001eac575b5050505050905090565b6000600454905090565b60008060009054906101000a900473ffffffffffffffffffffffffffffffffffffffff1673ffffffffffffffffffffffffffffffffffffffff163373ffffffffffffffffffffffffffffffffffffffff161462001f9f576040517f08c379a000000000000000000000000000000000000000000000000000000000815260040162001f969062003217565b60405180910390fd5b6000805b60038054905081101562002098576001600381111562001fc85762001fc762002fa6565b5b600260006003848154811062001fe35762001fe2620032ab565b5b9060005260206000200160009054906101000a900473ffffffffffffffffffffffffffffffffffffffff1673ffffffffffffffffffffffffffffffffffffffff1673ffffffffffffffffffffffffffffffffffffffff16815260200190815260200160002060009054906101000a900460ff1660038111156200206b576200206a62002fa6565b5b03620020825781806200207e9062003309565b9250505b80806200208f9062003309565b91505062001fa3565b508091505090565b60008054906101000a900473ffffffffffffffffffffffffffffffffffffffff1673ffffffffffffffffffffffffffffffffffffffff163373ffffffffffffffffffffffffffffffffffffffff161462002131576040517f08c379a0000000000000000000000000000000000000000000000000000000008152600401620021289062003217565b60405180910390fd5b6001600260008373ffffffffffffffffffffffffffffffffffffffff1673ffffffffffffffffffffffffffffffffffffffff16815260200190815260200160002060006101000a81548160ff0219169083600381111562002197576200219662002fa6565b5b021790555050565b606060008054906101000a900473ffffffffffffffffffffffffffffffffffffffff1673ffffffffffffffffffffffffffffffffffffffff163373ffffffffffffffffffffffffffffffffffffffff161462002232576040517f08c379a0000000000000000000000000000000000000000000000000000000008152600401620022299062003217565b60405180910390fd5b60006200223e62001f0b565b67ffffffffffffffff8111156200225a57620022596200286a565b5b604051908082528060200260200182016040528015620022895781602001602082028036833780820191505090505b5090506000805b600380549050811015620024175760016003811115620022b557620022b462002fa6565b5b6002600060038481548110620022d057620022cf620032ab565b5b9060005260206000200160009054906101000a900473ffffffffffffffffffffffffffffffffffffffff1673ffffffffffffffffffffffffffffffffffffffff1673ffffffffffffffffffffffffffffffffffffffff16815260200190815260200160002060009054906101000a900460ff16600381111562002358576200235762002fa6565b5b03620024015760038181548110620023755762002374620032ab565b5b9060005260206000200160009054906101000a900473ffffffffffffffffffffffffffffffffffffffff16838381518110620023b657620023b5620032ab565b5b602002602001019073ffffffffffffffffffffffffffffffffffffffff16908173ffffffffffffffffffffffffffffffffffffffff16815250508180620023fd9062003309565b9250505b80806200240e9062003309565b91505062002290565b50819250505090565b6000600560008473ffffffffffffffffffffffffffffffffffffffff1673ffffffffffffffffffffffffffffffffffffffff1681526020019081526020016000208281548110620024765762002475620032ab565b5b9060005260206000200154905092915050565b600060026003811115620024a257620024a162002fa6565b5b600260008473ffffffffffffffffffffffffffffffffffffffff1673ffffffffffffffffffffffffffffffffffffffff16815260200190815260200160002060009054906101000a900460ff16600381111562002504576200250362002fa6565b5b149050919050565b611539806200372383390190565b6040518060800160405280600073ffffffffffffffffffffffffffffffffffffffff168152602001600073ffffffffffffffffffffffffffffffffffffffff16815260200160008019168152602001600081525090565b6000819050919050565b620025868162002571565b82525050565b6000602082019050620025a360008301846200257b565b92915050565b6000604051905090565b600080fd5b600080fd5b6000819050919050565b620025d281620025bd565b8114620025de57600080fd5b50565b600081359050620025f281620025c7565b92915050565b60008060408385031215620026125762002611620025b3565b5b60006200262285828601620025e1565b92505060206200263585828601620025e1565b9150509250929050565b600081519050919050565b600082825260208201905092915050565b6000819050602082019050919050565b600073ffffffffffffffffffffffffffffffffffffffff82169050919050565b600062002698826200266b565b9050919050565b620026aa816200268b565b82525050565b6000819050919050565b6000620026db620026d5620026cf846200266b565b620026b0565b6200266b565b9050919050565b6000620026ef82620026ba565b9050919050565b60006200270382620026e2565b9050919050565b6200271581620026f6565b82525050565b6200272681620025bd565b82525050565b620027378162002571565b82525050565b6080820160008201516200275560008501826200269f565b5060208201516200276a60208501826200270a565b5060408201516200277f60408501826200271b565b5060608201516200279460608501826200272c565b50505050565b6000620027a883836200273d565b60808301905092915050565b6000602082019050919050565b6000620027ce826200263f565b620027da81856200264a565b9350620027e7836200265b565b8060005b838110156200281e5781516200280288826200279a565b97506200280f83620027b4565b925050600181019050620027eb565b5085935050505092915050565b60006020820190508181036000830152620028478184620027c1565b905092915050565b600080fd5b600080fd5b6000601f19601f8301169050919050565b7f4e487b7100000000000000000000000000000000000000000000000000000000600052604160045260246000fd5b620028a48262002859565b810181811067ffffffffffffffff82111715620028c657620028c56200286a565b5b80604052505050565b6000620028db620025a9565b9050620028e9828262002899565b919050565b600067ffffffffffffffff8211156200290c576200290b6200286a565b5b620029178262002859565b9050602081019050919050565b82818337600083830152505050565b60006200294a6200294484620028ee565b620028cf565b90508281526020810184848401111562002969576200296862002854565b5b6200297684828562002924565b509392505050565b600082601f8301126200299657620029956200284f565b5b8135620029a884826020860162002933565b91505092915050565b60008060408385031215620029cb57620029ca620025b3565b5b6000620029db85828601620025e1565b925050602083013567ffffffffffffffff811115620029ff57620029fe620025b8565b5b62002a0d858286016200297e565b9150509250929050565b62002a2281620025bd565b82525050565b600060208201905062002a3f600083018462002a17565b92915050565b62002a50816200268b565b811462002a5c57600080fd5b50565b60008135905062002a708162002a45565b92915050565b60006020828403121562002a8f5762002a8e620025b3565b5b600062002a9f8482850162002a5f565b91505092915050565b600081519050919050565b600082825260208201905092915050565b6000819050602082019050919050565b600062002ae283836200271b565b60208301905092915050565b6000602082019050919050565b600062002b088262002aa8565b62002b14818562002ab3565b935062002b218362002ac4565b8060005b8381101562002b5857815162002b3c888262002ad4565b975062002b498362002aee565b92505060018101905062002b25565b5085935050505092915050565b6000602082019050818103600083015262002b81818462002afb565b905092915050565b62002b948162002571565b811462002ba057600080fd5b50565b60008135905062002bb48162002b89565b92915050565b60006020828403121562002bd35762002bd2620025b3565b5b600062002be38482850162002ba3565b91505092915050565b62002bf7816200268b565b82525050565b600060208201905062002c14600083018462002bec565b92915050565b600081519050919050565b600082825260208201905092915050565b60005b8381101562002c5657808201518184015260208101905062002c39565b60008484015250505050565b600062002c6f8262002c1a565b62002c7b818562002c25565b935062002c8d81856020860162002c36565b62002c988162002859565b840191505092915050565b6000602082019050818103600083015262002cbf818462002c62565b905092915050565b6000806040838503121562002ce15762002ce0620025b3565b5b600062002cf185828601620025e1565b925050602062002d048582860162002ba3565b9150509250929050565b62002d1981620026f6565b82525050565b600060208201905062002d36600083018462002d0e565b92915050565b60008060006060848603121562002d585762002d57620025b3565b5b600062002d6886828701620025e1565b935050602062002d7b8682870162002ba3565b925050604062002d8e8682870162002a5f565b9150509250925092565b60008115159050919050565b62002daf8162002d98565b82525050565b600060208201905062002dcc600083018462002da4565b92915050565b60006020828403121562002deb5762002dea620025b3565b5b600062002dfb84828501620025e1565b91505092915050565b60808201600082015162002e1c60008501826200269f565b50602082015162002e3160208501826200270a565b50604082015162002e4660408501826200271b565b50606082015162002e5b60608501826200272c565b50505050565b600060808201905062002e78600083018462002e04565b92915050565b600081519050919050565b600082825260208201905092915050565b6000819050602082019050919050565b600062002eb883836200269f565b60208301905092915050565b6000602082019050919050565b600062002ede8262002e7e565b62002eea818562002e89565b935062002ef78362002e9a565b8060005b8381101562002f2e57815162002f12888262002eaa565b975062002f1f8362002ec4565b92505060018101905062002efb565b5085935050505092915050565b6000602082019050818103600083015262002f57818462002ed1565b905092915050565b6000806040838503121562002f795762002f78620025b3565b5b600062002f898582860162002a5f565b925050602062002f9c8582860162002ba3565b9150509250929050565b7f4e487b7100000000000000000000000000000000000000000000000000000000600052602160045260246000fd5b7f5961207365206861207265676973747261646f00000000000000000000000000600082015250565b60006200300d60138362002c25565b91506200301a8262002fd5565b602082019050919050565b60006020820190508181036000830152620030408162002ffe565b9050919050565b7f4c612070726f707565737461206e6f2070756564652073657220766163696100600082015250565b60006200307f601f8362002c25565b91506200308c8262003047565b602082019050919050565b60006020820190508181036000830152620030b28162003070565b9050919050565b7f456c206c6c616d61646f206e6f20657869737465000000000000000000000000600082015250565b6000620030f160148362002c25565b9150620030fe82620030b9565b602082019050919050565b600060208201905081810360008301526200312481620030e2565b9050919050565b600060408201905062003142600083018562002a17565b62003151602083018462002bec565b9392505050565b6000815190506200316981620025c7565b92915050565b600060208284031215620031885762003187620025b3565b5b6000620031988482850162003158565b91505092915050565b7f536f6c6f20656c2063726561646f72207075656465206861636572206573746160008201527f206c6c616d616461000000000000000000000000000000000000000000000000602082015250565b6000620031ff60288362002c25565b91506200320c82620031a1565b604082019050919050565b600060208201905081810360008301526200323281620031f0565b9050919050565b7f4e6f20686179206d61732070656e6469656e7465730000000000000000000000600082015250565b60006200327160158362002c25565b91506200327e8262003239565b602082019050919050565b60006020820190508181036000830152620032a48162003262565b9050919050565b7f4e487b7100000000000000000000000000000000000000000000000000000000600052603260045260246000fd5b7f4e487b7100000000000000000000000000000000000000000000000000000000600052601160045260246000fd5b6000620033168262002571565b91507fffffffffffffffffffffffffffffffffffffffffffffffffffffffffffffffff82036200334b576200334a620032da565b5b600182019050919050565b7f4e6f206578697374656e206d61732070656e6469656e74657300000000000000600082015250565b60006200338e60198362002c25565b91506200339b8262003356565b602082019050919050565b60006020820190508181036000830152620033c1816200337f565b9050919050565b6000620033df620033d984620028ee565b620028cf565b905082815260208101848484011115620033fe57620033fd62002854565b5b6200340b84828562002c36565b509392505050565b600082601f8301126200342b576200342a6200284f565b5b81516200343d848260208601620033c8565b91505092915050565b6000602082840312156200345f576200345e620025b3565b5b600082015167ffffffffffffffff81111562003480576200347f620025b8565b5b6200348e8482850162003413565b91505092915050565b7f4e6f206175746f72697a61646f00000000000000000000000000000000000000600082015250565b6000620034cf600d8362002c25565b9150620034dc8262003497565b602082019050919050565b600060208201905081810360008301526200350281620034c0565b9050919050565b7f456c206c6c616d61646f20796120657869737465000000000000000000000000600082015250565b60006200354160148362002c25565b91506200354e8262003509565b602082019050919050565b60006020820190508181036000830152620035748162003532565b9050919050565b7f456c20636965727265206465206c6120636f6e766f6361746f726961206e6f2060008201527f707565646520657374617220656e20656c2070617361646f0000000000000000602082015250565b6000620035d960388362002c25565b9150620035e6826200357b565b604082019050919050565b600060208201905081810360008301526200360c81620035ca565b9050919050565b60006200362082620026e2565b9050919050565b620036328162003613565b82525050565b60006200364582620026e2565b9050919050565b620036578162003638565b82525050565b600060808201905062003674600083018762002a17565b6200368360208301866200257b565b62003692604083018562003627565b620036a160608301846200364c565b95945050505050565b6000620036b78262002571565b9150620036c48362002571565b9250828201905080821115620036df57620036de620032da565b5b92915050565b6000606082019050620036fc600083018662002bec565b6200370b602083018562002a17565b6200371a604083018462002d0e565b94935050505056fe60806040523480156200001157600080fd5b506040516200153938038062001539833981810160405281019062000037919062000290565b8242106200007c576040517f08c379a0000000000000000000000000000000000000000000000000000000008152600401620000739062000389565b60405180910390fd5b836000819055508260018190555033600260006101000a81548173ffffffffffffffffffffffffffffffffffffffff021916908373ffffffffffffffffffffffffffffffffffffffff16021790555081600360006101000a81548173ffffffffffffffffffffffffffffffffffffffff021916908373ffffffffffffffffffffffffffffffffffffffff16021790555080600460006101000a81548173ffffffffffffffffffffffffffffffffffffffff021916908373ffffffffffffffffffffffffffffffffffffffff16021790555050505050620003ab565b600080fd5b6000819050919050565b62000171816200015c565b81146200017d57600080fd5b50565b600081519050620001918162000166565b92915050565b6000819050919050565b620001ac8162000197565b8114620001b857600080fd5b50565b600081519050620001cc81620001a1565b92915050565b600073ffffffffffffffffffffffffffffffffffffffff82169050919050565b6000620001ff82620001d2565b9050919050565b60006200021382620001f2565b9050919050565b620002258162000206565b81146200023157600080fd5b50565b60008151905062000245816200021a565b92915050565b60006200025882620001f2565b9050919050565b6200026a816200024b565b81146200027657600080fd5b50565b6000815190506200028a816200025f565b92915050565b60008060008060808587031215620002ad57620002ac62000157565b5b6000620002bd8782880162000180565b9450506020620002d087828801620001bb565b9350506040620002e38782880162000234565b9250506060620002f68782880162000279565b91505092959194509250565b600082825260208201905092915050565b7f456c20636965727265206465206c6120636f6e766f6361746f726961206e6f2060008201527f707565646520657374617220656e20656c2070617361646f0000000000000000602082015250565b60006200037160388362000302565b91506200037e8262000313565b604082019050919050565b60006020820190508181036000830152620003a48162000362565b9050919050565b61117e80620003bb6000396000f3fe608060405234801561001057600080fd5b50600436106100cf5760003560e01c806354b8d5e31161008c5780639c9cbf9c116100665780639c9cbf9c1461024e578063c47f00271461026a578063d955cb001461029a578063da35c664146102b8576100cf565b806354b8d5e3146101d25780635dcfbcc2146102025780636424e7191461021e576100cf565b8063013cf08b146100d457806302d05d3f146101045780630a494840146101225780630f79785c146101525780633696b787146101845780634b6753bc146101b4575b600080fd5b6100ee60048036038101906100e991906109c9565b6102d6565b6040516100fb9190610a0f565b60405180910390f35b61010c6102fe565b6040516101199190610a6b565b60405180910390f35b61013c600480360381019061013791906109c9565b610328565b6040516101499190610a0f565b60405180910390f35b61016c60048036038101906101679190610ab2565b61034c565b60405161017b93929190610aee565b60405180910390f35b61019e60048036038101906101999190610ab2565b610396565b6040516101ab9190610b25565b60405180910390f35b6101bc6103b6565b6040516101c99190610b25565b60405180910390f35b6101ec60048036038101906101e79190610ab2565b6103c0565b6040516101f99190610bd0565b60405180910390f35b61021c60048036038101906102179190610ab2565b61046a565b005b61023860048036038101906102339190610ab2565b610609565b6040516102459190610c52565b60405180910390f35b61026860048036038101906102639190610c99565b6106a0565b005b610284600480360381019061027f9190610e0e565b61088b565b6040516102919190610a0f565b60405180910390f35b6102a2610932565b6040516102af9190610a0f565b60405180910390f35b6102c061093b565b6040516102cd9190610b25565b60405180910390f35b6000600682815481106102ec576102eb610e57565b5b90600052602060002001549050919050565b6000600260009054906101000a900473ffffffffffffffffffffffffffffffffffffffff16905090565b6006818154811061033857600080fd5b906000526020600020016000915090505481565b60056020528060005260406000206000915090508060000160009054906101000a900473ffffffffffffffffffffffffffffffffffffffff16908060010154908060020154905083565b600060056000838152602001908152602001600020600201549050919050565b6000600154905090565b6060600460009054906101000a900473ffffffffffffffffffffffffffffffffffffffff1673ffffffffffffffffffffffffffffffffffffffff1663691f3431836040518263ffffffff1660e01b815260040161041d9190610a0f565b600060405180830381865afa15801561043a573d6000803e3d6000fd5b505050506040513d6000823e3d601f19601f820116820180604052508101906104639190610ef6565b9050919050565b600061047582610396565b146104b5576040517f08c379a00000000000000000000000000000000000000000000000000000000081526004016104ac90610fb1565b60405180910390fd5b6001544211156104fa576040517f08c379a00000000000000000000000000000000000000000000000000000000081526004016104f19061101d565b60405180910390fd5b600060405180606001604052803373ffffffffffffffffffffffffffffffffffffffff168152602001438152602001428152509050806005600084815260200190815260200160002060008201518160000160006101000a81548173ffffffffffffffffffffffffffffffffffffffff021916908373ffffffffffffffffffffffffffffffffffffffff160217905550602082015181600101556040820151816002015590505060068290806001815401808255809150506001900390600052602060002001600090919091909150557f1a26f048630a7f2b9229c19a042fe677bbbad402ecb8f3fa77f9c4a3f98cae948233436040516105fd9392919061103d565b60405180910390a15050565b610611610948565b600560008381526020019081526020016000206040518060600160405290816000820160009054906101000a900473ffffffffffffffffffffffffffffffffffffffff1673ffffffffffffffffffffffffffffffffffffffff1673ffffffffffffffffffffffffffffffffffffffff168152602001600182015481526020016002820154815250509050919050565b600260009054906101000a900473ffffffffffffffffffffffffffffffffffffffff1673ffffffffffffffffffffffffffffffffffffffff163373ffffffffffffffffffffffffffffffffffffffff1614610730576040517f08c379a0000000000000000000000000000000000000000000000000000000008152600401610727906110e6565b60405180910390fd5b600061073b83610396565b1461077b576040517f08c379a000000000000000000000000000000000000000000000000000000000815260040161077290610fb1565b60405180910390fd5b600060405180606001604052808373ffffffffffffffffffffffffffffffffffffffff168152602001438152602001428152509050806005600085815260200190815260200160002060008201518160000160006101000a81548173ffffffffffffffffffffffffffffffffffffffff021916908373ffffffffffffffffffffffffffffffffffffffff160217905550602082015181600101556040820151816002015590505060068390806001815401808255809150506001900390600052602060002001600090919091909150557f1a26f048630a7f2b9229c19a042fe677bbbad402ecb8f3fa77f9c4a3f98cae9483834360405161087e9392919061103d565b60405180910390a1505050565b6000600360009054906101000a900473ffffffffffffffffffffffffffffffffffffffff1673ffffffffffffffffffffffffffffffffffffffff1663c47f0027836040518263ffffffff1660e01b81526004016108e89190610bd0565b6020604051808303816000875af1158015610907573d6000803e3d6000fd5b505050506040513d601f19601f8201168201806040525081019061092b919061111b565b9050919050565b60008054905090565b6000600680549050905090565b6040518060600160405280600073ffffffffffffffffffffffffffffffffffffffff16815260200160008152602001600081525090565b6000604051905090565b600080fd5b600080fd5b6000819050919050565b6109a681610993565b81146109b157600080fd5b50565b6000813590506109c38161099d565b92915050565b6000602082840312156109df576109de610989565b5b60006109ed848285016109b4565b91505092915050565b6000819050919050565b610a09816109f6565b82525050565b6000602082019050610a246000830184610a00565b92915050565b600073ffffffffffffffffffffffffffffffffffffffff82169050919050565b6000610a5582610a2a565b9050919050565b610a6581610a4a565b82525050565b6000602082019050610a806000830184610a5c565b92915050565b610a8f816109f6565b8114610a9a57600080fd5b50565b600081359050610aac81610a86565b92915050565b600060208284031215610ac857610ac7610989565b5b6000610ad684828501610a9d565b91505092915050565b610ae881610993565b82525050565b6000606082019050610b036000830186610a5c565b610b106020830185610adf565b610b1d6040830184610adf565b949350505050565b6000602082019050610b3a6000830184610adf565b92915050565b600081519050919050565b600082825260208201905092915050565b60005b83811015610b7a578082015181840152602081019050610b5f565b60008484015250505050565b6000601f19601f8301169050919050565b6000610ba282610b40565b610bac8185610b4b565b9350610bbc818560208601610b5c565b610bc581610b86565b840191505092915050565b60006020820190508181036000830152610bea8184610b97565b905092915050565b610bfb81610a4a565b82525050565b610c0a81610993565b82525050565b606082016000820151610c266000850182610bf2565b506020820151610c396020850182610c01565b506040820151610c4c6040850182610c01565b50505050565b6000606082019050610c676000830184610c10565b92915050565b610c7681610a4a565b8114610c8157600080fd5b50565b600081359050610c9381610c6d565b92915050565b60008060408385031215610cb057610caf610989565b5b6000610cbe85828601610a9d565b9250506020610ccf85828601610c84565b9150509250929050565b600080fd5b600080fd5b7f4e487b7100000000000000000000000000000000000000000000000000000000600052604160045260246000fd5b610d1b82610b86565b810181811067ffffffffffffffff82111715610d3a57610d39610ce3565b5b80604052505050565b6000610d4d61097f565b9050610d598282610d12565b919050565b600067ffffffffffffffff821115610d7957610d78610ce3565b5b610d8282610b86565b9050602081019050919050565b82818337600083830152505050565b6000610db1610dac84610d5e565b610d43565b905082815260208101848484011115610dcd57610dcc610cde565b5b610dd8848285610d8f565b509392505050565b600082601f830112610df557610df4610cd9565b5b8135610e05848260208601610d9e565b91505092915050565b600060208284031215610e2457610e23610989565b5b600082013567ffffffffffffffff811115610e4257610e4161098e565b5b610e4e84828501610de0565b91505092915050565b7f4e487b7100000000000000000000000000000000000000000000000000000000600052603260045260246000fd5b6000610e99610e9484610d5e565b610d43565b905082815260208101848484011115610eb557610eb4610cde565b5b610ec0848285610b5c565b509392505050565b600082601f830112610edd57610edc610cd9565b5b8151610eed848260208601610e86565b91505092915050565b600060208284031215610f0c57610f0b610989565b5b600082015167ffffffffffffffff811115610f2a57610f2961098e565b5b610f3684828501610ec8565b91505092915050565b7f4c612070726f707565737461207961206861207369646f20726567697374726160008201527f6461000000000000000000000000000000000000000000000000000000000000602082015250565b6000610f9b602283610b4b565b9150610fa682610f3f565b604082019050919050565b60006020820190508181036000830152610fca81610f8e565b9050919050565b7f436f6e766f6361746f7269612063657272616461000000000000000000000000600082015250565b6000611007601483610b4b565b915061101282610fd1565b602082019050919050565b6000602082019050818103600083015261103681610ffa565b9050919050565b60006060820190506110526000830186610a00565b61105f6020830185610a5c565b61106c6040830184610adf565b949350505050565b7f536f6c6f20656c2063726561646f72207075656465206861636572206573746160008201527f206c6c616d616461000000000000000000000000000000000000000000000000602082015250565b60006110d0602883610b4b565b91506110db82611074565b604082019050919050565b600060208201905081810360008301526110ff816110c3565b9050919050565b60008151905061111581610a86565b92915050565b60006020828403121561113157611130610989565b5b600061113f84828501611106565b9150509291505056fea264697066735822122084595b9427e06937d7d589a33bb40053a2f3bd81c79ca4937b3aee132b53b26e64736f6c63430008130033a26469706673582212202b73ae58788dcde890fe41f69ff611f89d29ed46a7cf3fab768114a97a40287564736f6c63430008130033",
  "immutableReferences": {},
  "source": "//SPDX-License-Identifier: MIT\npragma solidity ^0.8.19;\n\nimport \"./CFP.sol\";\nimport \"./ReverseRegistrar.sol\";\nimport \"./PublicResolver.sol\";\n\n\ncontract CFPFactory {\n    // Evento que se emite cuando se crea un llamado a presentacin de propuestas\n    event CFPCreated(address creator, bytes32 callId, CFP cfp);\n\n    // Estructura que representa un llamado\n    struct CallForProposals {\n        address creator;\n        CFP cfp;\n        bytes32 callId;\n        uint256 timestamp;\n    }\n    enum status {\n        Unregistered,\n        Pending,\n        Authorized,\n        Unauthorized\n    }\n\n    address private factoryOwner;\n    mapping(bytes32 => CallForProposals) private _calls;\n    mapping(address => status) private _status;\n    address[] private _creators;\n    uint256 public activeCreators;\n    mapping(address => bytes32[]) private _createdBy;\n    CallForProposals[] private callsList;\n\n    ReverseRegistrar revRegistrar;\n    PublicResolver pubResolver;\n    \n    constructor(ReverseRegistrar revReg, PublicResolver pubRes) {\n        factoryOwner = msg.sender;\n        revRegistrar = revReg;\n        pubResolver = pubRes;\n        _status[factoryOwner] = status.Authorized;\n    }\n\n    // Direccin del dueo de la factora\n    function owner() public view returns (address) {\n        return factoryOwner;\n    }\n\n    // Devuelve el llamado asociado con un callId\n    function calls(\n        bytes32 callId\n    ) public view returns (CallForProposals memory) {\n        return _calls[callId];\n    }\n\n    // Devuelve la direccin de un creador de la lista de creadores\n    function creators(uint index) public view returns (address) {\n        return _creators[index];\n    }\n\n    /** Crea un llamado, con un identificador y un tiempo de cierre\n     *  Si ya existe un llamado con ese identificador, revierte con el mensaje de error \"El llamado ya existe\"\n     *  Si el emisor no est autorizado a crear llamados, revierte con el mensaje \"No autorizado\"\n     */\n    function create(bytes32 callId, uint256 timestamp) public returns (CFP) {\n        require(_status[msg.sender] == status.Authorized, \"No autorizado\");\n        require(_calls[callId].creator == address(0), \"El llamado ya existe\");\n        require(timestamp > block.timestamp, \"El cierre de la convocatoria no puede estar en el pasado\");\n        CFP cfp = new CFP(callId, timestamp, revRegistrar, pubResolver);\n        _calls[callId] = CallForProposals(msg.sender, cfp, callId, timestamp);\n        if (_createdBy[msg.sender].length == 0) {\n            activeCreators += 1;\n        }\n        callsList.push(_calls[callId]);\n        _createdBy[msg.sender].push(callId);\n        emit CFPCreated(msg.sender, callId, cfp);\n        return cfp;\n       \n\n    }\n\n    /**\n     * Crea un llamado, estableciendo a `creator` como creador del mismo.\n     * Slo puede ser invocada por el dueo de la factora.\n     * Se comporta en todos los dems aspectos como `createFor(bytes32 callId, uint timestamp)`\n     */\n    function createFor(\n        bytes32 callId,\n        uint timestamp,\n        address creator\n    ) public returns (CFP) {\n        require(msg.sender == factoryOwner, \"Solo el creador puede hacer esta llamada\");\n        require(_status[creator] == status.Authorized, \"No autorizado\");\n        require(_calls[callId].creator == address(0), \"El llamado ya existe\");\n        require(timestamp > block.timestamp, \"El cierre de la convocatoria no puede estar en el pasado\");\n        \n        CFP cfp = new CFP(callId, timestamp, revRegistrar, pubResolver);\n        _calls[callId] = CallForProposals(creator, cfp, callId, timestamp);\n        callsList.push(_calls[callId]);\n        if (_createdBy[creator].length == 0) {\n            activeCreators += 1;\n        }\n        _createdBy[creator].push(callId);\n        emit CFPCreated(creator, callId, cfp);\n        return cfp;\n    }\n\n    // Devuelve la cantidad de cuentas que han creado llamados.\n    function creatorsCount() public view returns (uint256) {\n        return activeCreators;\n    }\n\n    function getCreatorsList() public view returns (address[] memory) {\n        return _creators;\n    }\n\n    function getCallsList() public view returns (CallForProposals[] memory) {     \n        return callsList;\n    }\n\n    /// Devuelve el identificador del llamado que est en la posicin `index` de la lista de llamados creados por `creator`\n    function createdBy(\n        address creator,\n        uint256 index\n    ) public view returns (bytes32) {\n        return _createdBy[creator][index];\n    }\n\n    function callsByCreator(address creator) public view returns (bytes32[] memory) {\n        \n        return _createdBy[creator];\n    }\n\n    // Devuelve la cantidad de llamados creados por `creator`\n    function createdByCount(address creator) public view returns (uint256) {\n        return _createdBy[creator].length;\n    }\n\n    /** Permite a un usuario registrar una propuesta, para un llamado con identificador `callId`.\n     *  Si el llamado no existe, revierte con el mensaje  \"El llamado no existe\".\n     *  Registra la propuesta en el llamado asociado con `callId` y pasa como creador la direccin del emisor del mensaje.\n     */\n    function registerProposal(bytes32 callId, bytes32 proposal) public {\n        require(proposal != bytes32(0), \"La propuesta no puede ser vacia\");\n        require(_calls[callId].creator != address(0), \"El llamado no existe\");\n        _calls[callId].cfp.registerProposalFor(proposal, msg.sender);\n    }\n\n    /** Permite que una cuenta se registre para poder crear llamados.\n     *  El registro queda en estado pendiente hasta que el dueo de la factora lo autorice.\n     *  Si ya se ha registrado, revierte con el mensaje \"Ya se ha registrado\"\n     */\n    function register() public {\n        require(_status[msg.sender] != status.Pending, \"Ya se ha registrado\");\n        require(_status[msg.sender] != status.Authorized, \"Ya se ha registrado\");\n        _status[msg.sender] = status.Pending;\n        _creators.push(msg.sender);\n    }\n\n    /** Autoriza a una cuenta a crear llamados.\n     *  Slo puede ser ejecutada por el dueo de la factora.\n     *  En caso contrario revierte con el mensaje \"Solo el creador puede hacer esta llamada\".\n     *  Si la cuenta se ha registrado y est pendiente, la quita de la lista de pendientes.\n     */\n    function authorize(address creator) public {\n        require(msg.sender == factoryOwner, \"Solo el creador puede hacer esta llamada\");\n        _status[creator] = status.Authorized;\n        _creators.push(creator);\n        \n    }\n\n    /** Quita la autorizacin de una cuenta para crear llamados.\n     *  Slo puede ser ejecutada por el dueo de la factora.\n     *  En caso contrario revierte con el mensaje \"Solo el creador puede hacer esta llamada\".\n     *  Si la cuenta se ha registrado y est pendiente, la quita de la lista de pendientes.\n     */\n    function unauthorize(address creator) public {\n        require(msg.sender == factoryOwner, \"Solo el creador puede hacer esta llamada\");\n        _status[creator] = status.Pending;\n    }\n\n    // Devuelve la lista de todas las registraciones pendientes.\n    // Slo puede ser ejecutada por el dueo de la factora\n    // En caso contrario revierte con el mensaje \"Solo el creador puede hacer esta llamada\".\n    function getAllPending() public view returns (address[] memory) {\n        require(msg.sender == factoryOwner, \"Solo el creador puede hacer esta llamada\");\n        address[] memory pending = new address[](pendingCount());\n        uint256 j = 0;\n        for (uint256 i = 0; i < _creators.length; i++) {\n            if (_status[_creators[i]] == status.Pending) {\n                pending[j] = _creators[i];\n                j++;\n            }\n        }\n        return pending;\n\n    }\n\n    // Devuelve la registracin pendiente con ndice `index`\n    // Slo puede ser ejecutada por el dueo de la factora\n    // En caso contrario revierte con el mensaje \"Solo el creador puede hacer esta llamada\".\n    function getPending(uint256 index) public view returns (address) {\n        require(msg.sender == factoryOwner, \"Solo el creador puede hacer esta llamada\");\n        require(index < pendingCount(), \"No hay mas pendientes\");\n        uint256 j = 0;\n        for (uint256 i = 0; i < _creators.length; i++) {\n            if (_status[_creators[i]] == status.Pending) {\n                if (j == index) {\n                    return _creators[i];\n                }\n                j++;\n            }\n        }\n\n        // Revert no existen ms pendientes\n        revert(\"No existen mas pendientes\");\n    }\n\n    // Devuelve la cantidad de registraciones pendientes.\n    // Slo puede ser ejecutada por el dueo de la factora\n    // En caso contrario revierte con el mensaje \"Solo el creador puede hacer esta llamada\".\n    function pendingCount() public view returns (uint256) \n    {\n        require(msg.sender == factoryOwner, \"Solo el creador puede hacer esta llamada\");\n        uint256 count = 0;\n        for (uint256 i = 0; i < _creators.length; i++) {\n            if (_status[_creators[i]] == status.Pending) {\n                count++;\n            }\n        }\n        return count;\n    }\n\n    // Devuelve verdadero si una cuenta se ha registrado, tanto si su estado es pendiente como si ya se la ha autorizado.\n    function isRegistered(address account) public view returns (bool) {\n        return _status[account] == status.Pending || _status[account] == status.Authorized;\n    }\n\n    // Devuelve verdadero si una cuenta est autorizada a crear llamados.\n    function isAuthorized(address account) public view returns (bool) {\n        return _status[account] == status.Authorized;\n    }\n    function setName(bytes32 callId, string memory name) public returns (bytes32) {\n      return _calls[callId].cfp.setName(name);\n    }\n\n    function getName(bytes32 callId, bytes32 node) public view returns (string memory) {\n      return _calls[callId].cfp.getName(node);\n    }\n}\n",
  "sourcePath": "/Users/nahtao97/Blockchain/2024/TP/6/contracts/CFPFactory.sol",
  "compiler": {
    "name": "solc",
    "version": "0.8.19+commit.7dd6d404.Emscripten.clang"
  },
  "schemaVersion": "3.4.16",
  "updatedAt": "2024-08-01T02:02:47.771Z",
  "networkType": "ethereum",
  "devdoc": {
    "kind": "dev",
    "methods": {},
    "version": 1
  },
  "userdoc": {
    "kind": "user",
    "methods": {
      "authorize(address)": {
        "notice": "Autoriza a una cuenta a crear llamados.  Slo puede ser ejecutada por el dueo de la factora.  En caso contrario revierte con el mensaje \"Solo el creador puede hacer esta llamada\".  Si la cuenta se ha registrado y est pendiente, la quita de la lista de pendientes."
      },
      "create(bytes32,uint256)": {
        "notice": "Crea un llamado, con un identificador y un tiempo de cierre  Si ya existe un llamado con ese identificador, revierte con el mensaje de error \"El llamado ya existe\"  Si el emisor no est autorizado a crear llamados, revierte con el mensaje \"No autorizado\""
      },
      "createFor(bytes32,uint256,address)": {
        "notice": "Crea un llamado, estableciendo a `creator` como creador del mismo. Slo puede ser invocada por el dueo de la factora. Se comporta en todos los dems aspectos como `createFor(bytes32 callId, uint timestamp)`"
      },
      "createdBy(address,uint256)": {
        "notice": "Devuelve el identificador del llamado que est en la posicin `index` de la lista de llamados creados por `creator`"
      },
      "register()": {
        "notice": "Permite que una cuenta se registre para poder crear llamados.  El registro queda en estado pendiente hasta que el dueo de la factora lo autorice.  Si ya se ha registrado, revierte con el mensaje \"Ya se ha registrado\""
      },
      "registerProposal(bytes32,bytes32)": {
        "notice": "Permite a un usuario registrar una propuesta, para un llamado con identificador `callId`.  Si el llamado no existe, revierte con el mensaje  \"El llamado no existe\".  Registra la propuesta en el llamado asociado con `callId` y pasa como creador la direccin del emisor del mensaje."
      },
      "unauthorize(address)": {
        "notice": "Quita la autorizacin de una cuenta para crear llamados.  Slo puede ser ejecutada por el dueo de la factora.  En caso contrario revierte con el mensaje \"Solo el creador puede hacer esta llamada\".  Si la cuenta se ha registrado y est pendiente, la quita de la lista de pendientes."
      }
    },
    "version": 1
  }
}