{
  "contractName": "CFPFactory",
  "abi": [
    {
      "inputs": [],
      "stateMutability": "nonpayable",
      "type": "constructor"
    },
    {
      "anonymous": false,
      "inputs": [
        {
          "indexed": false,
          "internalType": "address",
          "name": "creator",
          "type": "address"
        },
        {
          "indexed": false,
          "internalType": "bytes32",
          "name": "callId",
          "type": "bytes32"
        },
        {
          "indexed": false,
          "internalType": "contract CFP",
          "name": "cfp",
          "type": "address"
        }
      ],
      "name": "CFPCreated",
      "type": "event"
    },
    {
      "inputs": [],
      "name": "activeCreators",
      "outputs": [
        {
          "internalType": "uint256",
          "name": "",
          "type": "uint256"
        }
      ],
      "stateMutability": "view",
      "type": "function",
      "constant": true
    },
    {
      "inputs": [],
      "name": "owner",
      "outputs": [
        {
          "internalType": "address",
          "name": "",
          "type": "address"
        }
      ],
      "stateMutability": "view",
      "type": "function",
      "constant": true
    },
    {
      "inputs": [
        {
          "internalType": "bytes32",
          "name": "callId",
          "type": "bytes32"
        }
      ],
      "name": "calls",
      "outputs": [
        {
          "components": [
            {
              "internalType": "address",
              "name": "creator",
              "type": "address"
            },
            {
              "internalType": "contract CFP",
              "name": "cfp",
              "type": "address"
            },
            {
              "internalType": "bytes32",
              "name": "callId",
              "type": "bytes32"
            },
            {
              "internalType": "uint256",
              "name": "timestamp",
              "type": "uint256"
            }
          ],
          "internalType": "struct CFPFactory.CallForProposals",
          "name": "",
          "type": "tuple"
        }
      ],
      "stateMutability": "view",
      "type": "function",
      "constant": true
    },
    {
      "inputs": [
        {
          "internalType": "uint256",
          "name": "index",
          "type": "uint256"
        }
      ],
      "name": "creators",
      "outputs": [
        {
          "internalType": "address",
          "name": "",
          "type": "address"
        }
      ],
      "stateMutability": "view",
      "type": "function",
      "constant": true
    },
    {
      "inputs": [
        {
          "internalType": "bytes32",
          "name": "callId",
          "type": "bytes32"
        },
        {
          "internalType": "uint256",
          "name": "timestamp",
          "type": "uint256"
        }
      ],
      "name": "create",
      "outputs": [
        {
          "internalType": "contract CFP",
          "name": "",
          "type": "address"
        }
      ],
      "stateMutability": "nonpayable",
      "type": "function"
    },
    {
      "inputs": [
        {
          "internalType": "bytes32",
          "name": "callId",
          "type": "bytes32"
        },
        {
          "internalType": "uint256",
          "name": "timestamp",
          "type": "uint256"
        },
        {
          "internalType": "address",
          "name": "creator",
          "type": "address"
        }
      ],
      "name": "createFor",
      "outputs": [
        {
          "internalType": "contract CFP",
          "name": "",
          "type": "address"
        }
      ],
      "stateMutability": "nonpayable",
      "type": "function"
    },
    {
      "inputs": [],
      "name": "creatorsCount",
      "outputs": [
        {
          "internalType": "uint256",
          "name": "",
          "type": "uint256"
        }
      ],
      "stateMutability": "view",
      "type": "function",
      "constant": true
    },
    {
      "inputs": [],
      "name": "getCreatorsList",
      "outputs": [
        {
          "internalType": "address[]",
          "name": "",
          "type": "address[]"
        }
      ],
      "stateMutability": "view",
      "type": "function",
      "constant": true
    },
    {
      "inputs": [],
      "name": "getCallsList",
      "outputs": [
        {
          "components": [
            {
              "internalType": "address",
              "name": "creator",
              "type": "address"
            },
            {
              "internalType": "contract CFP",
              "name": "cfp",
              "type": "address"
            },
            {
              "internalType": "bytes32",
              "name": "callId",
              "type": "bytes32"
            },
            {
              "internalType": "uint256",
              "name": "timestamp",
              "type": "uint256"
            }
          ],
          "internalType": "struct CFPFactory.CallForProposals[]",
          "name": "",
          "type": "tuple[]"
        }
      ],
      "stateMutability": "view",
      "type": "function",
      "constant": true
    },
    {
      "inputs": [
        {
          "internalType": "address",
          "name": "creator",
          "type": "address"
        },
        {
          "internalType": "uint256",
          "name": "index",
          "type": "uint256"
        }
      ],
      "name": "createdBy",
      "outputs": [
        {
          "internalType": "bytes32",
          "name": "",
          "type": "bytes32"
        }
      ],
      "stateMutability": "view",
      "type": "function",
      "constant": true
    },
    {
      "inputs": [
        {
          "internalType": "address",
          "name": "creator",
          "type": "address"
        }
      ],
      "name": "callsByCreator",
      "outputs": [
        {
          "internalType": "bytes32[]",
          "name": "",
          "type": "bytes32[]"
        }
      ],
      "stateMutability": "view",
      "type": "function",
      "constant": true
    },
    {
      "inputs": [
        {
          "internalType": "address",
          "name": "creator",
          "type": "address"
        }
      ],
      "name": "createdByCount",
      "outputs": [
        {
          "internalType": "uint256",
          "name": "",
          "type": "uint256"
        }
      ],
      "stateMutability": "view",
      "type": "function",
      "constant": true
    },
    {
      "inputs": [
        {
          "internalType": "bytes32",
          "name": "callId",
          "type": "bytes32"
        },
        {
          "internalType": "bytes32",
          "name": "proposal",
          "type": "bytes32"
        }
      ],
      "name": "registerProposal",
      "outputs": [],
      "stateMutability": "nonpayable",
      "type": "function"
    },
    {
      "inputs": [],
      "name": "register",
      "outputs": [],
      "stateMutability": "nonpayable",
      "type": "function"
    },
    {
      "inputs": [
        {
          "internalType": "address",
          "name": "creator",
          "type": "address"
        }
      ],
      "name": "authorize",
      "outputs": [],
      "stateMutability": "nonpayable",
      "type": "function"
    },
    {
      "inputs": [
        {
          "internalType": "address",
          "name": "creator",
          "type": "address"
        }
      ],
      "name": "unauthorize",
      "outputs": [],
      "stateMutability": "nonpayable",
      "type": "function"
    },
    {
      "inputs": [],
      "name": "getAllPending",
      "outputs": [
        {
          "internalType": "address[]",
          "name": "",
          "type": "address[]"
        }
      ],
      "stateMutability": "view",
      "type": "function",
      "constant": true
    },
    {
      "inputs": [
        {
          "internalType": "uint256",
          "name": "index",
          "type": "uint256"
        }
      ],
      "name": "getPending",
      "outputs": [
        {
          "internalType": "address",
          "name": "",
          "type": "address"
        }
      ],
      "stateMutability": "view",
      "type": "function",
      "constant": true
    },
    {
      "inputs": [],
      "name": "pendingCount",
      "outputs": [
        {
          "internalType": "uint256",
          "name": "",
          "type": "uint256"
        }
      ],
      "stateMutability": "view",
      "type": "function",
      "constant": true
    },
    {
      "inputs": [
        {
          "internalType": "address",
          "name": "account",
          "type": "address"
        }
      ],
      "name": "isRegistered",
      "outputs": [
        {
          "internalType": "bool",
          "name": "",
          "type": "bool"
        }
      ],
      "stateMutability": "view",
      "type": "function",
      "constant": true
    },
    {
      "inputs": [
        {
          "internalType": "address",
          "name": "account",
          "type": "address"
        }
      ],
      "name": "isAuthorized",
      "outputs": [
        {
          "internalType": "bool",
          "name": "",
          "type": "bool"
        }
      ],
      "stateMutability": "view",
      "type": "function",
      "constant": true
    }
  ],
  "bytecode": "0x60806040523480156200001157600080fd5b50336000806101000a81548173ffffffffffffffffffffffffffffffffffffffff021916908373ffffffffffffffffffffffffffffffffffffffff16021790555060028060008060009054906101000a900473ffffffffffffffffffffffffffffffffffffffff1673ffffffffffffffffffffffffffffffffffffffff1673ffffffffffffffffffffffffffffffffffffffff16815260200190815260200160002060006101000a81548160ff02191690836003811115620000d857620000d7620000e3565b5b021790555062000112565b7f4e487b7100000000000000000000000000000000000000000000000000000000600052602160045260246000fd5b613f1880620001226000396000f3fe60806040523480156200001157600080fd5b5060043610620001545760003560e01c8063b711cf2811620000c9578063e46bda541162000087578063e46bda5414620003dd578063ea70b4af14620003ff578063f0b37c041462000421578063f112ba721462000441578063f80364c71462000463578063fe9fbb8014620004995762000154565b8063b711cf2814620002e3578063c3c5a5471462000319578063cd53d08e146200034f578063cff102651462000385578063e1db17d214620003bb5762000154565b806384f89a93116200011757806384f89a9314620001ff5780638da5cb5b1462000235578063a042c1321462000257578063ab4f48c4146200028d578063b6a5d7de14620002c35762000154565b80631aa3a0081462000159578063295c417b14620001655780636a87d805146200018757806372fe313514620001a75780638099849014620001c9575b600080fd5b62000163620004cf565b005b6200016f62000717565b6040516200017e9190620022b8565b60405180910390f35b620001a560048036038101906200019f919062002315565b6200071d565b005b620001b1620008b8565b604051620001c0919062002548565b60405180910390f35b620001e76004803603810190620001e191906200259d565b620009d9565b604051620001f691906200268c565b60405180910390f35b6200021d6004803603810190620002179190620026e1565b62000a72565b6040516200022c919062002724565b60405180910390f35b6200023f62000ca9565b6040516200024e919062002724565b60405180910390f35b6200027560048036038101906200026f919062002741565b62000cd2565b60405162000284919062002799565b60405180910390f35b620002ab6004803603810190620002a59190620027b6565b620011f8565b604051620002ba919062002799565b60405180910390f35b620002e16004803603810190620002db91906200259d565b620017b1565b005b620003016004803603810190620002fb91906200259d565b62001912565b604051620003109190620022b8565b60405180910390f35b6200033760048036038101906200033191906200259d565b6200195e565b6040516200034691906200282f565b60405180910390f35b6200036d6004803603810190620003679190620026e1565b62001a63565b6040516200037c919062002724565b60405180910390f35b620003a360048036038101906200039d91906200284c565b62001aae565b604051620003b29190620028db565b60405180910390f35b620003c562001b9d565b604051620003d49190620029b5565b60405180910390f35b620003e762001c2d565b604051620003f69190620022b8565b60405180910390f35b6200040962001c37565b604051620004189190620022b8565b60405180910390f35b6200043f60048036038101906200043991906200259d565b62001dcc565b005b6200044b62001ecb565b6040516200045a9190620029b5565b60405180910390f35b6200048160048036038101906200047b9190620029d9565b6200214c565b60405162000490919062002a31565b60405180910390f35b620004b76004803603810190620004b191906200259d565b620021b5565b604051620004c691906200282f565b60405180910390f35b60016003811115620004e657620004e562002a4e565b5b600260003373ffffffffffffffffffffffffffffffffffffffff1673ffffffffffffffffffffffffffffffffffffffff16815260200190815260200160002060009054906101000a900460ff16600381111562000548576200054762002a4e565b5b036200058b576040517f08c379a0000000000000000000000000000000000000000000000000000000008152600401620005829062002ade565b60405180910390fd5b60026003811115620005a257620005a162002a4e565b5b600260003373ffffffffffffffffffffffffffffffffffffffff1673ffffffffffffffffffffffffffffffffffffffff16815260200190815260200160002060009054906101000a900460ff16600381111562000604576200060362002a4e565b5b0362000647576040517f08c379a00000000000000000000000000000000000000000000000000000000081526004016200063e9062002ade565b60405180910390fd5b6001600260003373ffffffffffffffffffffffffffffffffffffffff1673ffffffffffffffffffffffffffffffffffffffff16815260200190815260200160002060006101000a81548160ff02191690836003811115620006ad57620006ac62002a4e565b5b02179055506003339080600181540180825580915050600190039060005260206000200160009091909190916101000a81548173ffffffffffffffffffffffffffffffffffffffff021916908373ffffffffffffffffffffffffffffffffffffffff160217905550565b60045481565b6000801b810362000765576040517f08c379a00000000000000000000000000000000000000000000000000000000081526004016200075c9062002b50565b60405180910390fd5b600073ffffffffffffffffffffffffffffffffffffffff166001600084815260200190815260200160002060000160009054906101000a900473ffffffffffffffffffffffffffffffffffffffff1673ffffffffffffffffffffffffffffffffffffffff16036200080d576040517f08c379a0000000000000000000000000000000000000000000000000000000008152600401620008049062002bc2565b60405180910390fd5b6001600083815260200190815260200160002060010160009054906101000a900473ffffffffffffffffffffffffffffffffffffffff1673ffffffffffffffffffffffffffffffffffffffff16639c9cbf9c82336040518363ffffffff1660e01b81526004016200088092919062002be4565b600060405180830381600087803b1580156200089b57600080fd5b505af1158015620008b0573d6000803e3d6000fd5b505050505050565b60606006805480602002602001604051908101604052809291908181526020016000905b82821015620009d057838290600052602060002090600402016040518060800160405290816000820160009054906101000a900473ffffffffffffffffffffffffffffffffffffffff1673ffffffffffffffffffffffffffffffffffffffff1673ffffffffffffffffffffffffffffffffffffffff1681526020016001820160009054906101000a900473ffffffffffffffffffffffffffffffffffffffff1673ffffffffffffffffffffffffffffffffffffffff1673ffffffffffffffffffffffffffffffffffffffff1681526020016002820154815260200160038201548152505081526020019060010190620008dc565b50505050905090565b6060600560008373ffffffffffffffffffffffffffffffffffffffff1673ffffffffffffffffffffffffffffffffffffffff16815260200190815260200160002080548060200260200160405190810160405280929190818152602001828054801562000a6657602002820191906000526020600020905b81548152602001906001019080831162000a51575b50505050509050919050565b60008060009054906101000a900473ffffffffffffffffffffffffffffffffffffffff1673ffffffffffffffffffffffffffffffffffffffff163373ffffffffffffffffffffffffffffffffffffffff161462000b06576040517f08c379a000000000000000000000000000000000000000000000000000000000815260040162000afd9062002c87565b60405180910390fd5b62000b1062001c37565b821062000b54576040517f08c379a000000000000000000000000000000000000000000000000000000000815260040162000b4b9062002cf9565b60405180910390fd5b6000805b60038054905081101562000ca1576001600381111562000b7d5762000b7c62002a4e565b5b600260006003848154811062000b985762000b9762002d1b565b5b9060005260206000200160009054906101000a900473ffffffffffffffffffffffffffffffffffffffff1673ffffffffffffffffffffffffffffffffffffffff1673ffffffffffffffffffffffffffffffffffffffff16815260200190815260200160002060009054906101000a900460ff16600381111562000c205762000c1f62002a4e565b5b0362000c8b5783820362000c7a576003818154811062000c455762000c4462002d1b565b5b9060005260206000200160009054906101000a900473ffffffffffffffffffffffffffffffffffffffff169250505062000ca4565b818062000c879062002d79565b9250505b808062000c989062002d79565b91505062000b58565b50505b919050565b60008060009054906101000a900473ffffffffffffffffffffffffffffffffffffffff16905090565b60006002600381111562000ceb5762000cea62002a4e565b5b600260003373ffffffffffffffffffffffffffffffffffffffff1673ffffffffffffffffffffffffffffffffffffffff16815260200190815260200160002060009054906101000a900460ff16600381111562000d4d5762000d4c62002a4e565b5b1462000d90576040517f08c379a000000000000000000000000000000000000000000000000000000000815260040162000d879062002e16565b60405180910390fd5b600073ffffffffffffffffffffffffffffffffffffffff166001600085815260200190815260200160002060000160009054906101000a900473ffffffffffffffffffffffffffffffffffffffff1673ffffffffffffffffffffffffffffffffffffffff161462000e38576040517f08c379a000000000000000000000000000000000000000000000000000000000815260040162000e2f9062002e88565b60405180910390fd5b42821162000e7d576040517f08c379a000000000000000000000000000000000000000000000000000000000815260040162000e749062002f20565b60405180910390fd5b6000838360405162000e8f9062002238565b62000e9c92919062002f42565b604051809103906000f08015801562000eb9573d6000803e3d6000fd5b50905060405180608001604052803373ffffffffffffffffffffffffffffffffffffffff1681526020018273ffffffffffffffffffffffffffffffffffffffff168152602001858152602001848152506001600086815260200190815260200160002060008201518160000160006101000a81548173ffffffffffffffffffffffffffffffffffffffff021916908373ffffffffffffffffffffffffffffffffffffffff16021790555060208201518160010160006101000a81548173ffffffffffffffffffffffffffffffffffffffff021916908373ffffffffffffffffffffffffffffffffffffffff16021790555060408201518160020155606082015181600301559050506000600560003373ffffffffffffffffffffffffffffffffffffffff1673ffffffffffffffffffffffffffffffffffffffff1681526020019081526020016000208054905003620010295760016004600082825462001021919062002f6f565b925050819055505b60066001600086815260200190815260200160002090806001815401808255809150506001900390600052602060002090600402016000909190919091506000820160009054906101000a900473ffffffffffffffffffffffffffffffffffffffff168160000160006101000a81548173ffffffffffffffffffffffffffffffffffffffff021916908373ffffffffffffffffffffffffffffffffffffffff1602179055506001820160009054906101000a900473ffffffffffffffffffffffffffffffffffffffff168160010160006101000a81548173ffffffffffffffffffffffffffffffffffffffff021916908373ffffffffffffffffffffffffffffffffffffffff16021790555060028201548160020155600382015481600301555050600560003373ffffffffffffffffffffffffffffffffffffffff1673ffffffffffffffffffffffffffffffffffffffff1681526020019081526020016000208490806001815401808255809150506001900390600052602060002001600090919091909150557fc8e97c2f1b3ebe76aeef2bb679bcca3e5e5515fedd7c25a76b0929ad2b7c3ace338583604051620011e69392919062002faa565b60405180910390a18091505092915050565b60008060009054906101000a900473ffffffffffffffffffffffffffffffffffffffff1673ffffffffffffffffffffffffffffffffffffffff163373ffffffffffffffffffffffffffffffffffffffff16146200128c576040517f08c379a0000000000000000000000000000000000000000000000000000000008152600401620012839062002c87565b60405180910390fd5b60026003811115620012a357620012a262002a4e565b5b600260008473ffffffffffffffffffffffffffffffffffffffff1673ffffffffffffffffffffffffffffffffffffffff16815260200190815260200160002060009054906101000a900460ff16600381111562001305576200130462002a4e565b5b1462001348576040517f08c379a00000000000000000000000000000000000000000000000000000000081526004016200133f9062002e16565b60405180910390fd5b600073ffffffffffffffffffffffffffffffffffffffff166001600086815260200190815260200160002060000160009054906101000a900473ffffffffffffffffffffffffffffffffffffffff1673ffffffffffffffffffffffffffffffffffffffff1614620013f0576040517f08c379a0000000000000000000000000000000000000000000000000000000008152600401620013e79062002e88565b60405180910390fd5b42831162001435576040517f08c379a00000000000000000000000000000000000000000000000000000000081526004016200142c9062002f20565b60405180910390fd5b60008484604051620014479062002238565b6200145492919062002f42565b604051809103906000f08015801562001471573d6000803e3d6000fd5b50905060405180608001604052808473ffffffffffffffffffffffffffffffffffffffff1681526020018273ffffffffffffffffffffffffffffffffffffffff168152602001868152602001858152506001600087815260200190815260200160002060008201518160000160006101000a81548173ffffffffffffffffffffffffffffffffffffffff021916908373ffffffffffffffffffffffffffffffffffffffff16021790555060208201518160010160006101000a81548173ffffffffffffffffffffffffffffffffffffffff021916908373ffffffffffffffffffffffffffffffffffffffff160217905550604082015181600201556060820151816003015590505060066001600087815260200190815260200160002090806001815401808255809150506001900390600052602060002090600402016000909190919091506000820160009054906101000a900473ffffffffffffffffffffffffffffffffffffffff168160000160006101000a81548173ffffffffffffffffffffffffffffffffffffffff021916908373ffffffffffffffffffffffffffffffffffffffff1602179055506001820160009054906101000a900473ffffffffffffffffffffffffffffffffffffffff168160010160006101000a81548173ffffffffffffffffffffffffffffffffffffffff021916908373ffffffffffffffffffffffffffffffffffffffff160217905550600282015481600201556003820154816003015550506000600560008573ffffffffffffffffffffffffffffffffffffffff1673ffffffffffffffffffffffffffffffffffffffff16815260200190815260200160002080549050036200170357600160046000828254620016fb919062002f6f565b925050819055505b600560008473ffffffffffffffffffffffffffffffffffffffff1673ffffffffffffffffffffffffffffffffffffffff1681526020019081526020016000208590806001815401808255809150506001900390600052602060002001600090919091909150557fc8e97c2f1b3ebe76aeef2bb679bcca3e5e5515fedd7c25a76b0929ad2b7c3ace8386836040516200179e9392919062002faa565b60405180910390a1809150509392505050565b60008054906101000a900473ffffffffffffffffffffffffffffffffffffffff1673ffffffffffffffffffffffffffffffffffffffff163373ffffffffffffffffffffffffffffffffffffffff161462001842576040517f08c379a0000000000000000000000000000000000000000000000000000000008152600401620018399062002c87565b60405180910390fd5b60028060008373ffffffffffffffffffffffffffffffffffffffff1673ffffffffffffffffffffffffffffffffffffffff16815260200190815260200160002060006101000a81548160ff02191690836003811115620018a757620018a662002a4e565b5b02179055506003819080600181540180825580915050600190039060005260206000200160009091909190916101000a81548173ffffffffffffffffffffffffffffffffffffffff021916908373ffffffffffffffffffffffffffffffffffffffff16021790555050565b6000600560008373ffffffffffffffffffffffffffffffffffffffff1673ffffffffffffffffffffffffffffffffffffffff168152602001908152602001600020805490509050919050565b60006001600381111562001977576200197662002a4e565b5b600260008473ffffffffffffffffffffffffffffffffffffffff1673ffffffffffffffffffffffffffffffffffffffff16815260200190815260200160002060009054906101000a900460ff166003811115620019d957620019d862002a4e565b5b148062001a5c575060026003811115620019f857620019f762002a4e565b5b600260008473ffffffffffffffffffffffffffffffffffffffff1673ffffffffffffffffffffffffffffffffffffffff16815260200190815260200160002060009054906101000a900460ff16600381111562001a5a5762001a5962002a4e565b5b145b9050919050565b60006003828154811062001a7c5762001a7b62002d1b565b5b9060005260206000200160009054906101000a900473ffffffffffffffffffffffffffffffffffffffff169050919050565b62001ab862002246565b600160008381526020019081526020016000206040518060800160405290816000820160009054906101000a900473ffffffffffffffffffffffffffffffffffffffff1673ffffffffffffffffffffffffffffffffffffffff1673ffffffffffffffffffffffffffffffffffffffff1681526020016001820160009054906101000a900473ffffffffffffffffffffffffffffffffffffffff1673ffffffffffffffffffffffffffffffffffffffff1673ffffffffffffffffffffffffffffffffffffffff168152602001600282015481526020016003820154815250509050919050565b6060600380548060200260200160405190810160405280929190818152602001828054801562001c2357602002820191906000526020600020905b8160009054906101000a900473ffffffffffffffffffffffffffffffffffffffff1673ffffffffffffffffffffffffffffffffffffffff168152602001906001019080831162001bd8575b5050505050905090565b6000600454905090565b60008060009054906101000a900473ffffffffffffffffffffffffffffffffffffffff1673ffffffffffffffffffffffffffffffffffffffff163373ffffffffffffffffffffffffffffffffffffffff161462001ccb576040517f08c379a000000000000000000000000000000000000000000000000000000000815260040162001cc29062002c87565b60405180910390fd5b6000805b60038054905081101562001dc4576001600381111562001cf45762001cf362002a4e565b5b600260006003848154811062001d0f5762001d0e62002d1b565b5b9060005260206000200160009054906101000a900473ffffffffffffffffffffffffffffffffffffffff1673ffffffffffffffffffffffffffffffffffffffff1673ffffffffffffffffffffffffffffffffffffffff16815260200190815260200160002060009054906101000a900460ff16600381111562001d975762001d9662002a4e565b5b0362001dae57818062001daa9062002d79565b9250505b808062001dbb9062002d79565b91505062001ccf565b508091505090565b60008054906101000a900473ffffffffffffffffffffffffffffffffffffffff1673ffffffffffffffffffffffffffffffffffffffff163373ffffffffffffffffffffffffffffffffffffffff161462001e5d576040517f08c379a000000000000000000000000000000000000000000000000000000000815260040162001e549062002c87565b60405180910390fd5b6001600260008373ffffffffffffffffffffffffffffffffffffffff1673ffffffffffffffffffffffffffffffffffffffff16815260200190815260200160002060006101000a81548160ff0219169083600381111562001ec35762001ec262002a4e565b5b021790555050565b606060008054906101000a900473ffffffffffffffffffffffffffffffffffffffff1673ffffffffffffffffffffffffffffffffffffffff163373ffffffffffffffffffffffffffffffffffffffff161462001f5e576040517f08c379a000000000000000000000000000000000000000000000000000000000815260040162001f559062002c87565b60405180910390fd5b600062001f6a62001c37565b67ffffffffffffffff81111562001f865762001f8562002fe7565b5b60405190808252806020026020018201604052801562001fb55781602001602082028036833780820191505090505b5090506000805b60038054905081101562002143576001600381111562001fe15762001fe062002a4e565b5b600260006003848154811062001ffc5762001ffb62002d1b565b5b9060005260206000200160009054906101000a900473ffffffffffffffffffffffffffffffffffffffff1673ffffffffffffffffffffffffffffffffffffffff1673ffffffffffffffffffffffffffffffffffffffff16815260200190815260200160002060009054906101000a900460ff16600381111562002084576200208362002a4e565b5b036200212d5760038181548110620020a157620020a062002d1b565b5b9060005260206000200160009054906101000a900473ffffffffffffffffffffffffffffffffffffffff16838381518110620020e257620020e162002d1b565b5b602002602001019073ffffffffffffffffffffffffffffffffffffffff16908173ffffffffffffffffffffffffffffffffffffffff16815250508180620021299062002d79565b9250505b80806200213a9062002d79565b91505062001fbc565b50819250505090565b6000600560008473ffffffffffffffffffffffffffffffffffffffff1673ffffffffffffffffffffffffffffffffffffffff1681526020019081526020016000208281548110620021a257620021a162002d1b565b5b9060005260206000200154905092915050565b600060026003811115620021ce57620021cd62002a4e565b5b600260008473ffffffffffffffffffffffffffffffffffffffff1673ffffffffffffffffffffffffffffffffffffffff16815260200190815260200160002060009054906101000a900460ff16600381111562002230576200222f62002a4e565b5b149050919050565b610ecc806200301783390190565b6040518060800160405280600073ffffffffffffffffffffffffffffffffffffffff168152602001600073ffffffffffffffffffffffffffffffffffffffff16815260200160008019168152602001600081525090565b6000819050919050565b620022b2816200229d565b82525050565b6000602082019050620022cf6000830184620022a7565b92915050565b600080fd5b6000819050919050565b620022ef81620022da565b8114620022fb57600080fd5b50565b6000813590506200230f81620022e4565b92915050565b600080604083850312156200232f576200232e620022d5565b5b60006200233f85828601620022fe565b92505060206200235285828601620022fe565b9150509250929050565b600081519050919050565b600082825260208201905092915050565b6000819050602082019050919050565b600073ffffffffffffffffffffffffffffffffffffffff82169050919050565b6000620023b58262002388565b9050919050565b620023c781620023a8565b82525050565b6000819050919050565b6000620023f8620023f2620023ec8462002388565b620023cd565b62002388565b9050919050565b60006200240c82620023d7565b9050919050565b60006200242082620023ff565b9050919050565b620024328162002413565b82525050565b6200244381620022da565b82525050565b62002454816200229d565b82525050565b608082016000820151620024726000850182620023bc565b50602082015162002487602085018262002427565b5060408201516200249c604085018262002438565b506060820151620024b1606085018262002449565b50505050565b6000620024c583836200245a565b60808301905092915050565b6000602082019050919050565b6000620024eb826200235c565b620024f7818562002367565b9350620025048362002378565b8060005b838110156200253b5781516200251f8882620024b7565b97506200252c83620024d1565b92505060018101905062002508565b5085935050505092915050565b60006020820190508181036000830152620025648184620024de565b905092915050565b6200257781620023a8565b81146200258357600080fd5b50565b60008135905062002597816200256c565b92915050565b600060208284031215620025b657620025b5620022d5565b5b6000620025c68482850162002586565b91505092915050565b600081519050919050565b600082825260208201905092915050565b6000819050602082019050919050565b600062002609838362002438565b60208301905092915050565b6000602082019050919050565b60006200262f82620025cf565b6200263b8185620025da565b93506200264883620025eb565b8060005b838110156200267f578151620026638882620025fb565b9750620026708362002615565b9250506001810190506200264c565b5085935050505092915050565b60006020820190508181036000830152620026a8818462002622565b905092915050565b620026bb816200229d565b8114620026c757600080fd5b50565b600081359050620026db81620026b0565b92915050565b600060208284031215620026fa57620026f9620022d5565b5b60006200270a84828501620026ca565b91505092915050565b6200271e81620023a8565b82525050565b60006020820190506200273b600083018462002713565b92915050565b600080604083850312156200275b576200275a620022d5565b5b60006200276b85828601620022fe565b92505060206200277e85828601620026ca565b9150509250929050565b620027938162002413565b82525050565b6000602082019050620027b0600083018462002788565b92915050565b600080600060608486031215620027d257620027d1620022d5565b5b6000620027e286828701620022fe565b9350506020620027f586828701620026ca565b9250506040620028088682870162002586565b9150509250925092565b60008115159050919050565b620028298162002812565b82525050565b60006020820190506200284660008301846200281e565b92915050565b600060208284031215620028655762002864620022d5565b5b60006200287584828501620022fe565b91505092915050565b608082016000820151620028966000850182620023bc565b506020820151620028ab602085018262002427565b506040820151620028c0604085018262002438565b506060820151620028d5606085018262002449565b50505050565b6000608082019050620028f260008301846200287e565b92915050565b600081519050919050565b600082825260208201905092915050565b6000819050602082019050919050565b6000620029328383620023bc565b60208301905092915050565b6000602082019050919050565b60006200295882620028f8565b62002964818562002903565b9350620029718362002914565b8060005b83811015620029a85781516200298c888262002924565b975062002999836200293e565b92505060018101905062002975565b5085935050505092915050565b60006020820190508181036000830152620029d181846200294b565b905092915050565b60008060408385031215620029f357620029f2620022d5565b5b600062002a038582860162002586565b925050602062002a1685828601620026ca565b9150509250929050565b62002a2b81620022da565b82525050565b600060208201905062002a48600083018462002a20565b92915050565b7f4e487b7100000000000000000000000000000000000000000000000000000000600052602160045260246000fd5b600082825260208201905092915050565b7f5961207365206861207265676973747261646f00000000000000000000000000600082015250565b600062002ac660138362002a7d565b915062002ad38262002a8e565b602082019050919050565b6000602082019050818103600083015262002af98162002ab7565b9050919050565b7f4c612070726f707565737461206e6f2070756564652073657220766163696100600082015250565b600062002b38601f8362002a7d565b915062002b458262002b00565b602082019050919050565b6000602082019050818103600083015262002b6b8162002b29565b9050919050565b7f456c206c6c616d61646f206e6f20657869737465000000000000000000000000600082015250565b600062002baa60148362002a7d565b915062002bb78262002b72565b602082019050919050565b6000602082019050818103600083015262002bdd8162002b9b565b9050919050565b600060408201905062002bfb600083018562002a20565b62002c0a602083018462002713565b9392505050565b7f536f6c6f20656c2063726561646f72207075656465206861636572206573746160008201527f206c6c616d616461000000000000000000000000000000000000000000000000602082015250565b600062002c6f60288362002a7d565b915062002c7c8262002c11565b604082019050919050565b6000602082019050818103600083015262002ca28162002c60565b9050919050565b7f4e6f20686179206d61732070656e6469656e7465730000000000000000000000600082015250565b600062002ce160158362002a7d565b915062002cee8262002ca9565b602082019050919050565b6000602082019050818103600083015262002d148162002cd2565b9050919050565b7f4e487b7100000000000000000000000000000000000000000000000000000000600052603260045260246000fd5b7f4e487b7100000000000000000000000000000000000000000000000000000000600052601160045260246000fd5b600062002d86826200229d565b91507fffffffffffffffffffffffffffffffffffffffffffffffffffffffffffffffff820362002dbb5762002dba62002d4a565b5b600182019050919050565b7f4e6f206175746f72697a61646f00000000000000000000000000000000000000600082015250565b600062002dfe600d8362002a7d565b915062002e0b8262002dc6565b602082019050919050565b6000602082019050818103600083015262002e318162002def565b9050919050565b7f456c206c6c616d61646f20796120657869737465000000000000000000000000600082015250565b600062002e7060148362002a7d565b915062002e7d8262002e38565b602082019050919050565b6000602082019050818103600083015262002ea38162002e61565b9050919050565b7f456c20636965727265206465206c6120636f6e766f6361746f726961206e6f2060008201527f707565646520657374617220656e20656c2070617361646f0000000000000000602082015250565b600062002f0860388362002a7d565b915062002f158262002eaa565b604082019050919050565b6000602082019050818103600083015262002f3b8162002ef9565b9050919050565b600060408201905062002f59600083018562002a20565b62002f686020830184620022a7565b9392505050565b600062002f7c826200229d565b915062002f89836200229d565b925082820190508082111562002fa45762002fa362002d4a565b5b92915050565b600060608201905062002fc1600083018662002713565b62002fd0602083018562002a20565b62002fdf604083018462002788565b949350505050565b7f4e487b7100000000000000000000000000000000000000000000000000000000600052604160045260246000fdfe60806040523480156200001157600080fd5b5060405162000ecc38038062000ecc83398181016040528101906200003791906200014e565b8042106200007c576040517f08c379a000000000000000000000000000000000000000000000000000000000815260040162000073906200021c565b60405180910390fd5b816000819055508060018190555033600260006101000a81548173ffffffffffffffffffffffffffffffffffffffff021916908373ffffffffffffffffffffffffffffffffffffffff16021790555050506200023e565b600080fd5b6000819050919050565b620000ed81620000d8565b8114620000f957600080fd5b50565b6000815190506200010d81620000e2565b92915050565b6000819050919050565b620001288162000113565b81146200013457600080fd5b50565b60008151905062000148816200011d565b92915050565b60008060408385031215620001685762000167620000d3565b5b60006200017885828601620000fc565b92505060206200018b8582860162000137565b9150509250929050565b600082825260208201905092915050565b7f456c20636965727265206465206c6120636f6e766f6361746f726961206e6f2060008201527f707565646520657374617220656e20656c2070617361646f0000000000000000602082015250565b60006200020460388362000195565b91506200021182620001a6565b604082019050919050565b600060208201905081810360008301526200023781620001f5565b9050919050565b610c7e806200024e6000396000f3fe608060405234801561001057600080fd5b50600436106100a95760003560e01c80634b6753bc116100715780634b6753bc1461018e5780635dcfbcc2146101ac5780636424e719146101c85780639c9cbf9c146101f8578063d955cb0014610214578063da35c66414610232576100a9565b8063013cf08b146100ae57806302d05d3f146100de5780630a494840146100fc5780630f79785c1461012c5780633696b7871461015e575b600080fd5b6100c860048036038101906100c391906107e3565b610250565b6040516100d59190610829565b60405180910390f35b6100e6610278565b6040516100f39190610885565b60405180910390f35b610116600480360381019061011191906107e3565b6102a2565b6040516101239190610829565b60405180910390f35b610146600480360381019061014191906108cc565b6102c6565b60405161015593929190610908565b60405180910390f35b610178600480360381019061017391906108cc565b610310565b604051610185919061093f565b60405180910390f35b610196610330565b6040516101a3919061093f565b60405180910390f35b6101c660048036038101906101c191906108cc565b61033a565b005b6101e260048036038101906101dd91906108cc565b6104d9565b6040516101ef91906109ba565b60405180910390f35b610212600480360381019061020d9190610a01565b610570565b005b61021c61075b565b6040516102299190610829565b60405180910390f35b61023a610764565b604051610247919061093f565b60405180910390f35b60006004828154811061026657610265610a41565b5b90600052602060002001549050919050565b6000600260009054906101000a900473ffffffffffffffffffffffffffffffffffffffff16905090565b600481815481106102b257600080fd5b906000526020600020016000915090505481565b60036020528060005260406000206000915090508060000160009054906101000a900473ffffffffffffffffffffffffffffffffffffffff16908060010154908060020154905083565b600060036000838152602001908152602001600020600201549050919050565b6000600154905090565b600061034582610310565b14610385576040517f08c379a000000000000000000000000000000000000000000000000000000000815260040161037c90610af3565b60405180910390fd5b6001544211156103ca576040517f08c379a00000000000000000000000000000000000000000000000000000000081526004016103c190610b5f565b60405180910390fd5b600060405180606001604052803373ffffffffffffffffffffffffffffffffffffffff168152602001438152602001428152509050806003600084815260200190815260200160002060008201518160000160006101000a81548173ffffffffffffffffffffffffffffffffffffffff021916908373ffffffffffffffffffffffffffffffffffffffff160217905550602082015181600101556040820151816002015590505060048290806001815401808255809150506001900390600052602060002001600090919091909150557f1a26f048630a7f2b9229c19a042fe677bbbad402ecb8f3fa77f9c4a3f98cae948233436040516104cd93929190610b7f565b60405180910390a15050565b6104e1610771565b600360008381526020019081526020016000206040518060600160405290816000820160009054906101000a900473ffffffffffffffffffffffffffffffffffffffff1673ffffffffffffffffffffffffffffffffffffffff1673ffffffffffffffffffffffffffffffffffffffff168152602001600182015481526020016002820154815250509050919050565b600260009054906101000a900473ffffffffffffffffffffffffffffffffffffffff1673ffffffffffffffffffffffffffffffffffffffff163373ffffffffffffffffffffffffffffffffffffffff1614610600576040517f08c379a00000000000000000000000000000000000000000000000000000000081526004016105f790610c28565b60405180910390fd5b600061060b83610310565b1461064b576040517f08c379a000000000000000000000000000000000000000000000000000000000815260040161064290610af3565b60405180910390fd5b600060405180606001604052808373ffffffffffffffffffffffffffffffffffffffff168152602001438152602001428152509050806003600085815260200190815260200160002060008201518160000160006101000a81548173ffffffffffffffffffffffffffffffffffffffff021916908373ffffffffffffffffffffffffffffffffffffffff160217905550602082015181600101556040820151816002015590505060048390806001815401808255809150506001900390600052602060002001600090919091909150557f1a26f048630a7f2b9229c19a042fe677bbbad402ecb8f3fa77f9c4a3f98cae9483834360405161074e93929190610b7f565b60405180910390a1505050565b60008054905090565b6000600480549050905090565b6040518060600160405280600073ffffffffffffffffffffffffffffffffffffffff16815260200160008152602001600081525090565b600080fd5b6000819050919050565b6107c0816107ad565b81146107cb57600080fd5b50565b6000813590506107dd816107b7565b92915050565b6000602082840312156107f9576107f86107a8565b5b6000610807848285016107ce565b91505092915050565b6000819050919050565b61082381610810565b82525050565b600060208201905061083e600083018461081a565b92915050565b600073ffffffffffffffffffffffffffffffffffffffff82169050919050565b600061086f82610844565b9050919050565b61087f81610864565b82525050565b600060208201905061089a6000830184610876565b92915050565b6108a981610810565b81146108b457600080fd5b50565b6000813590506108c6816108a0565b92915050565b6000602082840312156108e2576108e16107a8565b5b60006108f0848285016108b7565b91505092915050565b610902816107ad565b82525050565b600060608201905061091d6000830186610876565b61092a60208301856108f9565b61093760408301846108f9565b949350505050565b600060208201905061095460008301846108f9565b92915050565b61096381610864565b82525050565b610972816107ad565b82525050565b60608201600082015161098e600085018261095a565b5060208201516109a16020850182610969565b5060408201516109b46040850182610969565b50505050565b60006060820190506109cf6000830184610978565b92915050565b6109de81610864565b81146109e957600080fd5b50565b6000813590506109fb816109d5565b92915050565b60008060408385031215610a1857610a176107a8565b5b6000610a26858286016108b7565b9250506020610a37858286016109ec565b9150509250929050565b7f4e487b7100000000000000000000000000000000000000000000000000000000600052603260045260246000fd5b600082825260208201905092915050565b7f4c612070726f707565737461207961206861207369646f20726567697374726160008201527f6461000000000000000000000000000000000000000000000000000000000000602082015250565b6000610add602283610a70565b9150610ae882610a81565b604082019050919050565b60006020820190508181036000830152610b0c81610ad0565b9050919050565b7f436f6e766f6361746f7269612063657272616461000000000000000000000000600082015250565b6000610b49601483610a70565b9150610b5482610b13565b602082019050919050565b60006020820190508181036000830152610b7881610b3c565b9050919050565b6000606082019050610b94600083018661081a565b610ba16020830185610876565b610bae60408301846108f9565b949350505050565b7f536f6c6f20656c2063726561646f72207075656465206861636572206573746160008201527f206c6c616d616461000000000000000000000000000000000000000000000000602082015250565b6000610c12602883610a70565b9150610c1d82610bb6565b604082019050919050565b60006020820190508181036000830152610c4181610c05565b905091905056fea2646970667358221220aa2198af3558d37d39d247f134e387a6370f035d60a4fc2278b117f0d9e7b65f64736f6c63430008130033a2646970667358221220f579ad60be6e2bdcd59822aee9285299b1cc10ff0c26f362331c4470e945c27e64736f6c63430008130033",
  "immutableReferences": {},
  "source": "//SPDX-License-Identifier: MIT\npragma solidity ^0.8.19;\n\nimport \"./CFP.sol\";\n\ncontract CFPFactory {\n    // Evento que se emite cuando se crea un llamado a presentacin de propuestas\n    event CFPCreated(address creator, bytes32 callId, CFP cfp);\n\n    // Estructura que representa un llamado\n    struct CallForProposals {\n        address creator;\n        CFP cfp;\n        bytes32 callId;\n        uint256 timestamp;\n    }\n    enum status {\n        Unregistered,\n        Pending,\n        Authorized,\n        Unauthorized\n    }\n\n    address private factoryOwner;\n    mapping(bytes32 => CallForProposals) private _calls;\n    mapping(address => status) private _status;\n    address[] private _creators;\n    uint256 public activeCreators;\n    mapping(address => bytes32[]) private _createdBy;\n    CallForProposals[] private callsList;\n    \n    constructor() {\n        factoryOwner = msg.sender;\n        _status[factoryOwner] = status.Authorized;\n    }\n\n    // Direccin del dueo de la factora\n    function owner() public view returns (address) {\n        return factoryOwner;\n    }\n\n    // Devuelve el llamado asociado con un callId\n    function calls(\n        bytes32 callId\n    ) public view returns (CallForProposals memory) {\n        return _calls[callId];\n    }\n\n    // Devuelve la direccin de un creador de la lista de creadores\n    function creators(uint index) public view returns (address) {\n        return _creators[index];\n    }\n\n    /** Crea un llamado, con un identificador y un tiempo de cierre\n     *  Si ya existe un llamado con ese identificador, revierte con el mensaje de error \"El llamado ya existe\"\n     *  Si el emisor no est autorizado a crear llamados, revierte con el mensaje \"No autorizado\"\n     */\n    function create(bytes32 callId, uint256 timestamp) public returns (CFP) {\n        require(_status[msg.sender] == status.Authorized, \"No autorizado\");\n        require(_calls[callId].creator == address(0), \"El llamado ya existe\");\n        require(timestamp > block.timestamp, \"El cierre de la convocatoria no puede estar en el pasado\");\n        CFP cfp = new CFP(callId, timestamp);\n        _calls[callId] = CallForProposals(msg.sender, cfp, callId, timestamp);\n        if (_createdBy[msg.sender].length == 0) {\n            activeCreators += 1;\n        }\n        callsList.push(_calls[callId]);\n        _createdBy[msg.sender].push(callId);\n        emit CFPCreated(msg.sender, callId, cfp);\n        return cfp;\n       \n\n    }\n\n    /**\n     * Crea un llamado, estableciendo a `creator` como creador del mismo.\n     * Slo puede ser invocada por el dueo de la factora.\n     * Se comporta en todos los dems aspectos como `createFor(bytes32 callId, uint timestamp)`\n     */\n    function createFor(\n        bytes32 callId,\n        uint timestamp,\n        address creator\n    ) public returns (CFP) {\n        require(msg.sender == factoryOwner, \"Solo el creador puede hacer esta llamada\");\n        require(_status[creator] == status.Authorized, \"No autorizado\");\n        require(_calls[callId].creator == address(0), \"El llamado ya existe\");\n        require(timestamp > block.timestamp, \"El cierre de la convocatoria no puede estar en el pasado\");\n        \n        CFP cfp = new CFP(callId, timestamp);\n        _calls[callId] = CallForProposals(creator, cfp, callId, timestamp);\n        callsList.push(_calls[callId]);\n        if (_createdBy[creator].length == 0) {\n            activeCreators += 1;\n        }\n        _createdBy[creator].push(callId);\n        emit CFPCreated(creator, callId, cfp);\n        return cfp;\n    }\n\n    // Devuelve la cantidad de cuentas que han creado llamados.\n    function creatorsCount() public view returns (uint256) {\n        return activeCreators;\n    }\n\n    function getCreatorsList() public view returns (address[] memory) {\n        return _creators;\n    }\n\n    function getCallsList() public view returns (CallForProposals[] memory) {     \n        return callsList;\n    }\n\n    /// Devuelve el identificador del llamado que est en la posicin `index` de la lista de llamados creados por `creator`\n    function createdBy(\n        address creator,\n        uint256 index\n    ) public view returns (bytes32) {\n        return _createdBy[creator][index];\n    }\n\n    function callsByCreator(address creator) public view returns (bytes32[] memory) {\n        \n        return _createdBy[creator];\n    }\n\n    // Devuelve la cantidad de llamados creados por `creator`\n    function createdByCount(address creator) public view returns (uint256) {\n        return _createdBy[creator].length;\n    }\n\n    /** Permite a un usuario registrar una propuesta, para un llamado con identificador `callId`.\n     *  Si el llamado no existe, revierte con el mensaje  \"El llamado no existe\".\n     *  Registra la propuesta en el llamado asociado con `callId` y pasa como creador la direccin del emisor del mensaje.\n     */\n    function registerProposal(bytes32 callId, bytes32 proposal) public {\n        require(proposal != bytes32(0), \"La propuesta no puede ser vacia\");\n        require(_calls[callId].creator != address(0), \"El llamado no existe\");\n        _calls[callId].cfp.registerProposalFor(proposal, msg.sender);\n    }\n\n    /** Permite que una cuenta se registre para poder crear llamados.\n     *  El registro queda en estado pendiente hasta que el dueo de la factora lo autorice.\n     *  Si ya se ha registrado, revierte con el mensaje \"Ya se ha registrado\"\n     */\n    function register() public {\n        require(_status[msg.sender] != status.Pending, \"Ya se ha registrado\");\n        require(_status[msg.sender] != status.Authorized, \"Ya se ha registrado\");\n        _status[msg.sender] = status.Pending;\n        _creators.push(msg.sender);\n    }\n\n    /** Autoriza a una cuenta a crear llamados.\n     *  Slo puede ser ejecutada por el dueo de la factora.\n     *  En caso contrario revierte con el mensaje \"Solo el creador puede hacer esta llamada\".\n     *  Si la cuenta se ha registrado y est pendiente, la quita de la lista de pendientes.\n     */\n    function authorize(address creator) public {\n        require(msg.sender == factoryOwner, \"Solo el creador puede hacer esta llamada\");\n        _status[creator] = status.Authorized;\n        _creators.push(creator);\n        \n    }\n\n    /** Quita la autorizacin de una cuenta para crear llamados.\n     *  Slo puede ser ejecutada por el dueo de la factora.\n     *  En caso contrario revierte con el mensaje \"Solo el creador puede hacer esta llamada\".\n     *  Si la cuenta se ha registrado y est pendiente, la quita de la lista de pendientes.\n     */\n    function unauthorize(address creator) public {\n        require(msg.sender == factoryOwner, \"Solo el creador puede hacer esta llamada\");\n        _status[creator] = status.Pending;\n    }\n\n    // Devuelve la lista de todas las registraciones pendientes.\n    // Slo puede ser ejecutada por el dueo de la factora\n    // En caso contrario revierte con el mensaje \"Solo el creador puede hacer esta llamada\".\n    function getAllPending() public view returns (address[] memory) {\n        require(msg.sender == factoryOwner, \"Solo el creador puede hacer esta llamada\");\n        address[] memory pending = new address[](pendingCount());\n        uint256 j = 0;\n        for (uint256 i = 0; i < _creators.length; i++) {\n            if (_status[_creators[i]] == status.Pending) {\n                pending[j] = _creators[i];\n                j++;\n            }\n        }\n        return pending;\n\n    }\n\n    // Devuelve la registracin pendiente con ndice `index`\n    // Slo puede ser ejecutada por el dueo de la factora\n    // En caso contrario revierte con el mensaje \"Solo el creador puede hacer esta llamada\".\n    function getPending(uint256 index) public view returns (address) {\n        require(msg.sender == factoryOwner, \"Solo el creador puede hacer esta llamada\");\n        require(index < pendingCount(), \"No hay mas pendientes\");\n        uint256 j = 0;\n        for (uint256 i = 0; i < _creators.length; i++) {\n            if (_status[_creators[i]] == status.Pending) {\n                if (j == index) {\n                    return _creators[i];\n                }\n                j++;\n            }\n        }\n\n        // Revert no existen ms pendientes\n        \n    }\n\n    // Devuelve la cantidad de registraciones pendientes.\n    // Slo puede ser ejecutada por el dueo de la factora\n    // En caso contrario revierte con el mensaje \"Solo el creador puede hacer esta llamada\".\n    function pendingCount() public view returns (uint256) \n    {\n        require(msg.sender == factoryOwner, \"Solo el creador puede hacer esta llamada\");\n        uint256 count = 0;\n        for (uint256 i = 0; i < _creators.length; i++) {\n            if (_status[_creators[i]] == status.Pending) {\n                count++;\n            }\n        }\n        return count;\n    }\n\n    // Devuelve verdadero si una cuenta se ha registrado, tanto si su estado es pendiente como si ya se la ha autorizado.\n    function isRegistered(address account) public view returns (bool) {\n        return _status[account] == status.Pending || _status[account] == status.Authorized;\n    }\n\n    // Devuelve verdadero si una cuenta est autorizada a crear llamados.\n    function isAuthorized(address account) public view returns (bool) {\n        return _status[account] == status.Authorized;\n    }\n}\n",
  "sourcePath": "/Users/nahtao97/Blockchain/2024/TP/6/contracts/CFPFactory.sol",
  "compiler": {
    "name": "solc",
    "version": "0.8.19+commit.7dd6d404.Emscripten.clang"
  },
  "schemaVersion": "3.4.16",
  "updatedAt": "2024-06-13T14:28:34.640Z",
  "networkType": "ethereum",
  "devdoc": {
    "kind": "dev",
    "methods": {},
    "version": 1
  },
  "userdoc": {
    "kind": "user",
    "methods": {
      "authorize(address)": {
        "notice": "Autoriza a una cuenta a crear llamados.  Slo puede ser ejecutada por el dueo de la factora.  En caso contrario revierte con el mensaje \"Solo el creador puede hacer esta llamada\".  Si la cuenta se ha registrado y est pendiente, la quita de la lista de pendientes."
      },
      "create(bytes32,uint256)": {
        "notice": "Crea un llamado, con un identificador y un tiempo de cierre  Si ya existe un llamado con ese identificador, revierte con el mensaje de error \"El llamado ya existe\"  Si el emisor no est autorizado a crear llamados, revierte con el mensaje \"No autorizado\""
      },
      "createFor(bytes32,uint256,address)": {
        "notice": "Crea un llamado, estableciendo a `creator` como creador del mismo. Slo puede ser invocada por el dueo de la factora. Se comporta en todos los dems aspectos como `createFor(bytes32 callId, uint timestamp)`"
      },
      "createdBy(address,uint256)": {
        "notice": "Devuelve el identificador del llamado que est en la posicin `index` de la lista de llamados creados por `creator`"
      },
      "register()": {
        "notice": "Permite que una cuenta se registre para poder crear llamados.  El registro queda en estado pendiente hasta que el dueo de la factora lo autorice.  Si ya se ha registrado, revierte con el mensaje \"Ya se ha registrado\""
      },
      "registerProposal(bytes32,bytes32)": {
        "notice": "Permite a un usuario registrar una propuesta, para un llamado con identificador `callId`.  Si el llamado no existe, revierte con el mensaje  \"El llamado no existe\".  Registra la propuesta en el llamado asociado con `callId` y pasa como creador la direccin del emisor del mensaje."
      },
      "unauthorize(address)": {
        "notice": "Quita la autorizacin de una cuenta para crear llamados.  Slo puede ser ejecutada por el dueo de la factora.  En caso contrario revierte con el mensaje \"Solo el creador puede hacer esta llamada\".  Si la cuenta se ha registrado y est pendiente, la quita de la lista de pendientes."
      }
    },
    "version": 1
  }
}