{
  "contractName": "ReverseRegistrar",
  "abi": [
    {
      "inputs": [
        {
          "internalType": "contract ENS",
          "name": "ensAddr",
          "type": "address"
        },
        {
          "internalType": "contract Resolver",
          "name": "resolverAddr",
          "type": "address"
        }
      ],
      "stateMutability": "nonpayable",
      "type": "constructor"
    },
    {
      "inputs": [],
      "name": "ADDR_REVERSE_NODE",
      "outputs": [
        {
          "internalType": "bytes32",
          "name": "",
          "type": "bytes32"
        }
      ],
      "stateMutability": "view",
      "type": "function",
      "constant": true
    },
    {
      "inputs": [],
      "name": "defaultResolver",
      "outputs": [
        {
          "internalType": "contract Resolver",
          "name": "",
          "type": "address"
        }
      ],
      "stateMutability": "view",
      "type": "function",
      "constant": true
    },
    {
      "inputs": [],
      "name": "ens",
      "outputs": [
        {
          "internalType": "contract ENS",
          "name": "",
          "type": "address"
        }
      ],
      "stateMutability": "view",
      "type": "function",
      "constant": true
    },
    {
      "inputs": [
        {
          "internalType": "address",
          "name": "owner",
          "type": "address"
        }
      ],
      "name": "claim",
      "outputs": [
        {
          "internalType": "bytes32",
          "name": "",
          "type": "bytes32"
        }
      ],
      "stateMutability": "nonpayable",
      "type": "function"
    },
    {
      "inputs": [],
      "name": "getAddres",
      "outputs": [
        {
          "internalType": "contract ReverseRegistrar",
          "name": "",
          "type": "address"
        }
      ],
      "stateMutability": "view",
      "type": "function",
      "constant": true
    },
    {
      "inputs": [
        {
          "internalType": "address",
          "name": "owner",
          "type": "address"
        },
        {
          "internalType": "address",
          "name": "resolver",
          "type": "address"
        }
      ],
      "name": "claimWithResolver",
      "outputs": [
        {
          "internalType": "bytes32",
          "name": "",
          "type": "bytes32"
        }
      ],
      "stateMutability": "nonpayable",
      "type": "function"
    },
    {
      "inputs": [
        {
          "internalType": "bytes32",
          "name": "nodee",
          "type": "bytes32"
        },
        {
          "internalType": "string",
          "name": "key",
          "type": "string"
        },
        {
          "internalType": "string",
          "name": "value",
          "type": "string"
        }
      ],
      "name": "setText",
      "outputs": [],
      "stateMutability": "nonpayable",
      "type": "function"
    },
    {
      "inputs": [
        {
          "internalType": "string",
          "name": "name",
          "type": "string"
        }
      ],
      "name": "setName",
      "outputs": [
        {
          "internalType": "bytes32",
          "name": "",
          "type": "bytes32"
        }
      ],
      "stateMutability": "nonpayable",
      "type": "function"
    },
    {
      "inputs": [
        {
          "internalType": "address",
          "name": "addr",
          "type": "address"
        }
      ],
      "name": "node",
      "outputs": [
        {
          "internalType": "bytes32",
          "name": "",
          "type": "bytes32"
        }
      ],
      "stateMutability": "pure",
      "type": "function",
      "constant": true
    }
  ],
  "bytecode": "0x60806040523480156200001157600080fd5b50604051620014a6380380620014a6833981810160405281019062000037919062000303565b816000806101000a81548173ffffffffffffffffffffffffffffffffffffffff021916908373ffffffffffffffffffffffffffffffffffffffff16021790555080600160006101000a81548173ffffffffffffffffffffffffffffffffffffffff021916908373ffffffffffffffffffffffffffffffffffffffff16021790555060008060009054906101000a900473ffffffffffffffffffffffffffffffffffffffff1673ffffffffffffffffffffffffffffffffffffffff166302571be37f91d1777781884d03a6757a803996e38de2a42967fb37eeaca72729271025a9e260001b6040518263ffffffff1660e01b815260040162000139919062000365565b602060405180830381865afa15801562000157573d6000803e3d6000fd5b505050506040513d601f19601f820116820180604052508101906200017d9190620003b3565b9050600073ffffffffffffffffffffffffffffffffffffffff168173ffffffffffffffffffffffffffffffffffffffff161462000237578073ffffffffffffffffffffffffffffffffffffffff16631e83409a336040518263ffffffff1660e01b8152600401620001ef9190620003f6565b6020604051808303816000875af11580156200020f573d6000803e3d6000fd5b505050506040513d601f19601f8201168201806040525081019062000235919062000444565b505b50505062000476565b600080fd5b600073ffffffffffffffffffffffffffffffffffffffff82169050919050565b6000620002728262000245565b9050919050565b6000620002868262000265565b9050919050565b620002988162000279565b8114620002a457600080fd5b50565b600081519050620002b8816200028d565b92915050565b6000620002cb8262000265565b9050919050565b620002dd81620002be565b8114620002e957600080fd5b50565b600081519050620002fd81620002d2565b92915050565b600080604083850312156200031d576200031c62000240565b5b60006200032d85828601620002a7565b92505060206200034085828601620002ec565b9150509250929050565b6000819050919050565b6200035f816200034a565b82525050565b60006020820190506200037c600083018462000354565b92915050565b6200038d8162000265565b81146200039957600080fd5b50565b600081519050620003ad8162000382565b92915050565b600060208284031215620003cc57620003cb62000240565b5b6000620003dc848285016200039c565b91505092915050565b620003f08162000265565b82525050565b60006020820190506200040d6000830184620003e5565b92915050565b6200041e816200034a565b81146200042a57600080fd5b50565b6000815190506200043e8162000413565b92915050565b6000602082840312156200045d576200045c62000240565b5b60006200046d848285016200042d565b91505092915050565b61102080620004866000396000f3fe608060405234801561001057600080fd5b50600436106100935760003560e01c80637cf8a2eb116100665780637cf8a2eb14610132578063828eab0e14610150578063bffbe61c1461016e578063c47f00271461019e578063d7f39793146101ce57610093565b80630f5a54661461009857806310f13a8c146100c85780631e83409a146100e45780633f15457f14610114575b600080fd5b6100b260048036038101906100ad9190610984565b6101ec565b6040516100bf91906109dd565b60405180910390f35b6100e260048036038101906100dd9190610a89565b610659565b005b6100fe60048036038101906100f99190610b1e565b6106f5565b60405161010b91906109dd565b60405180910390f35b61011c610709565b6040516101299190610baa565b60405180910390f35b61013a61072d565b60405161014791906109dd565b60405180910390f35b610158610754565b6040516101659190610be6565b60405180910390f35b61018860048036038101906101839190610b1e565b61077a565b60405161019591906109dd565b60405180910390f35b6101b860048036038101906101b39190610d42565b6107d7565b6040516101c591906109dd565b60405180910390f35b6101d66108a0565b6040516101e39190610dac565b60405180910390f35b6000806101f8336108a8565b905060007f91d1777781884d03a6757a803996e38de2a42967fb37eeaca72729271025a9e260001b82604051602001610232929190610de8565b60405160208183030381529060405280519060200120905060008060009054906101000a900473ffffffffffffffffffffffffffffffffffffffff1673ffffffffffffffffffffffffffffffffffffffff166302571be3836040518263ffffffff1660e01b81526004016102a691906109dd565b602060405180830381865afa1580156102c3573d6000803e3d6000fd5b505050506040513d601f19601f820116820180604052508101906102e79190610e29565b9050600073ffffffffffffffffffffffffffffffffffffffff168573ffffffffffffffffffffffffffffffffffffffff16141580156103eb575060008054906101000a900473ffffffffffffffffffffffffffffffffffffffff1673ffffffffffffffffffffffffffffffffffffffff16630178b8bf836040518263ffffffff1660e01b815260040161037a91906109dd565b602060405180830381865afa158015610397573d6000803e3d6000fd5b505050506040513d601f19601f820116820180604052508101906103bb9190610e29565b73ffffffffffffffffffffffffffffffffffffffff168573ffffffffffffffffffffffffffffffffffffffff1614155b15610567573073ffffffffffffffffffffffffffffffffffffffff168173ffffffffffffffffffffffffffffffffffffffff16146104d95760008054906101000a900473ffffffffffffffffffffffffffffffffffffffff1673ffffffffffffffffffffffffffffffffffffffff166306ab59237f91d1777781884d03a6757a803996e38de2a42967fb37eeaca72729271025a9e260001b85306040518463ffffffff1660e01b81526004016104a393929190610e65565b600060405180830381600087803b1580156104bd57600080fd5b505af11580156104d1573d6000803e3d6000fd5b505050503090505b60008054906101000a900473ffffffffffffffffffffffffffffffffffffffff1673ffffffffffffffffffffffffffffffffffffffff16631896f70a83876040518363ffffffff1660e01b8152600401610534929190610e9c565b600060405180830381600087803b15801561054e57600080fd5b505af1158015610562573d6000803e3d6000fd5b505050505b8573ffffffffffffffffffffffffffffffffffffffff168173ffffffffffffffffffffffffffffffffffffffff161461064d5760008054906101000a900473ffffffffffffffffffffffffffffffffffffffff1673ffffffffffffffffffffffffffffffffffffffff166306ab59237f91d1777781884d03a6757a803996e38de2a42967fb37eeaca72729271025a9e260001b85896040518463ffffffff1660e01b815260040161061a93929190610e65565b600060405180830381600087803b15801561063457600080fd5b505af1158015610648573d6000803e3d6000fd5b505050505b81935050505092915050565b600160009054906101000a900473ffffffffffffffffffffffffffffffffffffffff1673ffffffffffffffffffffffffffffffffffffffff166310f13a8c86868686866040518663ffffffff1660e01b81526004016106bc959493929190610f03565b600060405180830381600087803b1580156106d657600080fd5b505af11580156106ea573d6000803e3d6000fd5b505050505050505050565b60006107028260006101ec565b9050919050565b60008054906101000a900473ffffffffffffffffffffffffffffffffffffffff1681565b7f91d1777781884d03a6757a803996e38de2a42967fb37eeaca72729271025a9e260001b81565b600160009054906101000a900473ffffffffffffffffffffffffffffffffffffffff1681565b60007f91d1777781884d03a6757a803996e38de2a42967fb37eeaca72729271025a9e260001b6107a9836108a8565b6040516020016107ba929190610de8565b604051602081830303815290604052805190602001209050919050565b60008061080630600160009054906101000a900473ffffffffffffffffffffffffffffffffffffffff166101ec565b9050600160009054906101000a900473ffffffffffffffffffffffffffffffffffffffff1673ffffffffffffffffffffffffffffffffffffffff16637737221382856040518363ffffffff1660e01b8152600401610865929190610fba565b600060405180830381600087803b15801561087f57600080fd5b505af1158015610893573d6000803e3d6000fd5b5050505080915050919050565b600030905090565b60007f303132333435363738396162636465660000000000000000000000000000000060285b60008111156109045760018103905081600f85161a815360108404935060018103905081600f85161a81536010840493506108ce565b506028600020915050919050565b6000604051905090565b600080fd5b600080fd5b600073ffffffffffffffffffffffffffffffffffffffff82169050919050565b600061095182610926565b9050919050565b61096181610946565b811461096c57600080fd5b50565b60008135905061097e81610958565b92915050565b6000806040838503121561099b5761099a61091c565b5b60006109a98582860161096f565b92505060206109ba8582860161096f565b9150509250929050565b6000819050919050565b6109d7816109c4565b82525050565b60006020820190506109f260008301846109ce565b92915050565b610a01816109c4565b8114610a0c57600080fd5b50565b600081359050610a1e816109f8565b92915050565b600080fd5b600080fd5b600080fd5b60008083601f840112610a4957610a48610a24565b5b8235905067ffffffffffffffff811115610a6657610a65610a29565b5b602083019150836001820283011115610a8257610a81610a2e565b5b9250929050565b600080600080600060608688031215610aa557610aa461091c565b5b6000610ab388828901610a0f565b955050602086013567ffffffffffffffff811115610ad457610ad3610921565b5b610ae088828901610a33565b9450945050604086013567ffffffffffffffff811115610b0357610b02610921565b5b610b0f88828901610a33565b92509250509295509295909350565b600060208284031215610b3457610b3361091c565b5b6000610b428482850161096f565b91505092915050565b6000819050919050565b6000610b70610b6b610b6684610926565b610b4b565b610926565b9050919050565b6000610b8282610b55565b9050919050565b6000610b9482610b77565b9050919050565b610ba481610b89565b82525050565b6000602082019050610bbf6000830184610b9b565b92915050565b6000610bd082610b77565b9050919050565b610be081610bc5565b82525050565b6000602082019050610bfb6000830184610bd7565b92915050565b600080fd5b6000601f19601f8301169050919050565b7f4e487b7100000000000000000000000000000000000000000000000000000000600052604160045260246000fd5b610c4f82610c06565b810181811067ffffffffffffffff82111715610c6e57610c6d610c17565b5b80604052505050565b6000610c81610912565b9050610c8d8282610c46565b919050565b600067ffffffffffffffff821115610cad57610cac610c17565b5b610cb682610c06565b9050602081019050919050565b82818337600083830152505050565b6000610ce5610ce084610c92565b610c77565b905082815260208101848484011115610d0157610d00610c01565b5b610d0c848285610cc3565b509392505050565b600082601f830112610d2957610d28610a24565b5b8135610d39848260208601610cd2565b91505092915050565b600060208284031215610d5857610d5761091c565b5b600082013567ffffffffffffffff811115610d7657610d75610921565b5b610d8284828501610d14565b91505092915050565b6000610d9682610b77565b9050919050565b610da681610d8b565b82525050565b6000602082019050610dc16000830184610d9d565b92915050565b6000819050919050565b610de2610ddd826109c4565b610dc7565b82525050565b6000610df48285610dd1565b602082019150610e048284610dd1565b6020820191508190509392505050565b600081519050610e2381610958565b92915050565b600060208284031215610e3f57610e3e61091c565b5b6000610e4d84828501610e14565b91505092915050565b610e5f81610946565b82525050565b6000606082019050610e7a60008301866109ce565b610e8760208301856109ce565b610e946040830184610e56565b949350505050565b6000604082019050610eb160008301856109ce565b610ebe6020830184610e56565b9392505050565b600082825260208201905092915050565b6000610ee28385610ec5565b9350610eef838584610cc3565b610ef883610c06565b840190509392505050565b6000606082019050610f1860008301886109ce565b8181036020830152610f2b818688610ed6565b90508181036040830152610f40818486610ed6565b90509695505050505050565b600081519050919050565b60005b83811015610f75578082015181840152602081019050610f5a565b60008484015250505050565b6000610f8c82610f4c565b610f968185610ec5565b9350610fa6818560208601610f57565b610faf81610c06565b840191505092915050565b6000604082019050610fcf60008301856109ce565b8181036020830152610fe18184610f81565b9050939250505056fea264697066735822122083c2b03729aa20ea6bc5dbac6a4670ab0b9382f68dbd5fbf581039c8cfc5c37464736f6c63430008130033",
  "immutableReferences": {},
  "source": "// SPDX-License-Identifier: MIT\npragma solidity >=0.8.0;\n\nimport \"./ENS.sol\";\n\nabstract contract Resolver {\n    function setName(bytes32 node, string memory name) public virtual;\n    function setText(bytes32 node, string calldata key, string calldata value) public virtual;\n}\n\ncontract ReverseRegistrar {\n    // namehash('addr.reverse')\n    bytes32 public constant ADDR_REVERSE_NODE = 0x91d1777781884d03a6757a803996e38de2a42967fb37eeaca72729271025a9e2;\n\n    ENS public ens;\n    Resolver public defaultResolver;\n\n    /**\n     * @dev Constructor\n     * @param ensAddr The address of the ENS registry.\n     * @param resolverAddr The address of the default reverse resolver.\n     */\n    constructor(ENS ensAddr, Resolver resolverAddr) {\n        ens = ensAddr;\n        defaultResolver = resolverAddr;\n\n        // Assign ownership of the reverse record to our deployer\n        ReverseRegistrar oldRegistrar = ReverseRegistrar(ens.owner(ADDR_REVERSE_NODE));\n        if (address(oldRegistrar) != address(0x0)) {\n            oldRegistrar.claim(msg.sender);\n        }\n    }\n    \n    /**\n     * @dev Transfers ownership of the reverse ENS record associated with the\n     *      calling account.\n     * @param owner The address to set as the owner of the reverse record in ENS.\n     * @return The ENS node hash of the reverse record.\n     */\n    function claim(address owner) public returns (bytes32) {\n        return claimWithResolver(owner, address(0x0));\n    }\n\n    function getAddres() public view returns (ReverseRegistrar){\n        return this;\n    }\n\n    /**\n     * @dev Transfers ownership of the reverse ENS record associated with the\n     *      calling account.\n     * @param owner The address to set as the owner of the reverse record in ENS.\n     * @param resolver The address of the resolver to set; 0 to leave unchanged.\n     * @return The ENS node hash of the reverse record.\n     */\n    function claimWithResolver(address owner, address resolver) public returns (bytes32) {\n        bytes32 label = sha3HexAddress(msg.sender);\n        bytes32 _node = keccak256(abi.encodePacked(ADDR_REVERSE_NODE, label));\n        address currentOwner = ens.owner(_node);\n\n        // Update the resolver if required\n        if (resolver != address(0x0) && resolver != ens.resolver(_node)) {\n            // Transfer the name to us first if it's not already\n            if (currentOwner != address(this)) {\n                ens.setSubnodeOwner(ADDR_REVERSE_NODE, label, address(this));\n                currentOwner = address(this);\n            }\n            ens.setResolver(_node, resolver);\n        }\n\n        // Update the owner if required\n        if (currentOwner != owner) {\n            ens.setSubnodeOwner(ADDR_REVERSE_NODE, label, owner);\n        }\n\n        return _node;\n    }\n\n\n    function setText(bytes32 nodee, string calldata key, string calldata value) public {\n        defaultResolver.setText(nodee,key,value);\n    }\n\n\n      /**\n     * @dev Sets the `name()` record for the reverse ENS record associated with\n     * the calling account. First updates the resolver to the default reverse\n     * resolver if necessary.\n     * @param name The name to set for this address.\n     * @return The ENS node hash of the reverse record.\n     */\n\n    function setName(string memory name) public returns (bytes32) {\n        bytes32 _node = claimWithResolver(address(this), address(defaultResolver));\n        defaultResolver.setName(_node, name);\n        return _node;\n    }\n\n    /**\n     * @dev Returns the node hash for a given account's reverse records.\n     * @param addr The address to hash\n     * @return The ENS node hash.\n     */\n    function node(address addr) public pure returns (bytes32) {\n        return keccak256(abi.encodePacked(ADDR_REVERSE_NODE, sha3HexAddress(addr)));\n    }\n\n    /**\n     * @dev An optimised function to compute the sha3 of the lower-case\n     *      hexadecimal representation of an Ethereum address.\n     * @param addr The address to hash\n     * @return ret The SHA3 hash of the lower-case hexadecimal encoding of the\n     *         input address.\n     */\n    function sha3HexAddress(address addr) private pure returns (bytes32 ret) {\n        addr;\n        ret; // Stop warning us about unused variables\n        assembly {\n            let lookup := 0x3031323334353637383961626364656600000000000000000000000000000000\n\n            for { let i := 40 } gt(i, 0) { } {\n                i := sub(i, 1)\n                mstore8(i, byte(and(addr, 0xf), lookup))\n                addr := div(addr, 0x10)\n                i := sub(i, 1)\n                mstore8(i, byte(and(addr, 0xf), lookup))\n                addr := div(addr, 0x10)\n            }\n\n            ret := keccak256(0, 40)\n        }\n    }\n}\n",
  "sourcePath": "/Users/nahtao97/Blockchain/2024/Final/contracts/ReverseRegistrar.sol",
  "compiler": {
    "name": "solc",
    "version": "0.8.19+commit.7dd6d404.Emscripten.clang"
  },
  "schemaVersion": "3.4.16",
  "updatedAt": "2024-08-01T17:43:00.174Z",
  "networkType": "ethereum",
  "devdoc": {
    "kind": "dev",
    "methods": {
      "claim(address)": {
        "details": "Transfers ownership of the reverse ENS record associated with the      calling account.",
        "params": {
          "owner": "The address to set as the owner of the reverse record in ENS."
        },
        "returns": {
          "_0": "The ENS node hash of the reverse record."
        }
      },
      "claimWithResolver(address,address)": {
        "details": "Transfers ownership of the reverse ENS record associated with the      calling account.",
        "params": {
          "owner": "The address to set as the owner of the reverse record in ENS.",
          "resolver": "The address of the resolver to set; 0 to leave unchanged."
        },
        "returns": {
          "_0": "The ENS node hash of the reverse record."
        }
      },
      "constructor": {
        "details": "Constructor",
        "params": {
          "ensAddr": "The address of the ENS registry.",
          "resolverAddr": "The address of the default reverse resolver."
        }
      },
      "node(address)": {
        "details": "Returns the node hash for a given account's reverse records.",
        "params": {
          "addr": "The address to hash"
        },
        "returns": {
          "_0": "The ENS node hash."
        }
      },
      "setName(string)": {
        "details": "Sets the `name()` record for the reverse ENS record associated with the calling account. First updates the resolver to the default reverse resolver if necessary.",
        "params": {
          "name": "The name to set for this address."
        },
        "returns": {
          "_0": "The ENS node hash of the reverse record."
        }
      }
    },
    "version": 1
  },
  "userdoc": {
    "kind": "user",
    "methods": {},
    "version": 1
  }
}